:020000040800F2
:1000000000000320ED090008250900082709000861
:10001000290900082B0900082D090008000000002C
:100020000000000000000000000000007122000835
:100030002F0900080000000011230008BD1F000860
:100040003D0A00083D0A00083D0A00083D0A000874
:100050003D0A00083D0A00083D0A00083D0A000864
:100060003D0A00083D0A00083D0A00083D0A000854
:100070003D0A00083D0A00083D0A00083D0A000844
:100080003D0A00083D0A00083D0A00083109000841
:100090003D0A0008410900083D0A00083D0A000821
:1000A0003D0A00083D0A00083D0A00083D0A000814
:1000B0003D0A0008510900083D0A00083D0A0008F1
:1000C0003D0A00083D0A00083D0A00083D0A0008F4
:1000D0003D0A00083D0A00083D0A00083D0A0008E4
:1000E0003D0A00083D0A00083D0A00083D0A0008D4
:1000F0003D0A00083D0A00083D0A00083D0A0008C4
:100100003D0A00083D0A00083D0A00083D0A0008B3
:100110003D0A00083D0A00083D0A00083D0A0008A3
:100120003D0A00083D0A0008610900083D0A000870
:100130003D0A00083D0A00083D0A00087109000850
:100140003D0A0008810900083D0A00083D0A000830
:100150003D0A00083D0A00083D0A00083D0A000863
:100160003D0A00083D0A00083D0A00083D0A000853
:100170003D0A00083D0A00083D0A00080000000092
:100180003D0A00083D0A00083D0A00083D0A000833
:100190003D0A00083D0A00083D0A00083D0A000823
:0C01A00000000000000000003D0A000804
:1001B00053B94AB9002908BF00281CBF4FF0FF31CE
:1001C0004FF0FF3000F00CB8ADF1080C6DE904CE33
:1001D00003F08CFDDDF804E0DDE9022304B0704794
:1001E000704700BF844641EA000313F003036DD15A
:1001F000403A41D351F8043B40F8043B51F8043BEA
:1002000040F8043B51F8043B40F8043B51F8043BF0
:1002100040F8043B51F8043B40F8043B51F8043BE0
:1002200040F8043B51F8043B40F8043B51F8043BD0
:1002300040F8043B51F8043B40F8043B51F8043BC0
:1002400040F8043B51F8043B40F8043B51F8043BB0
:1002500040F8043B51F8043B40F8043B51F8043BA0
:1002600040F8043B51F8043B40F8043B51F8043B90
:1002700040F8043B403ABDD2303211D351F8043B30
:1002800040F8043B51F8043B40F8043B51F8043B70
:1002900040F8043B51F8043B40F8043B103AEDD2DF
:1002A0000C3205D351F8043B40F8043B043AF9D230
:1002B000043208D0D2071CBF11F8013B00F8013B03
:1002C00001D30B8803806046704700BF082A13D310
:1002D0008B078DD010F003038AD0C3F10403D21A28
:1002E000DB071CBF11F8013B00F8013B80D331F85C
:1002F000023B20F8023B7BE7043AD9D3013A11F8DC
:10030000013B00F8013BF9D20B7803704B78437046
:100310008B788370604670470348044B834202D059
:10032000034B03B11847704770050020700500208B
:10033000000000000548064B1B1AD90F01EBA30172
:10034000491002D0034B03B11847704770050020D5
:10035000700500200000000010B5064C237843B95A
:10036000FFF7DAFF044B13B10448AFF30080012319
:10037000237010BD7005002000000000EC44000850
:1003800008B5054B1BB105490548AFF30080BDE832
:100390000840FFF7CFBF00BF000000007405002039
:1003A000EC44000884B000220092154B196B41F018
:1003B00001011963196B01F001010091009901928B
:1003C000196B41F002011963196B01F002010191EF
:1003D00001990292196B41F008011963196B01F040
:1003E00008010291029903921A6B42F080021A638B
:1003F0001B6B03F080030393039B04B0704700BFA3
:100400000038024000B583B000220192094B196BFD
:1004100041F4800119631B6B03F480030193019B7A
:1004200005213A2000F068FD3A2000F075FD03B088
:100430005DF804FB0038024008B5012001F057FECA
:10044000FBE708B5012001F052FEFBE708B50120EB
:1004500001F04DFEFBE7000008B50268034B9A422D
:1004600000D008BD00F006FBFBE700BF0004004021
:1004700072B6FEE708B50D480D4B036003234360D9
:1004800000238360C3604FF4002202614FF44012E6
:100490004261037643768376C3760377437700F031
:1004A000FBFA00B908BDFFF7E3FF00BF68060020B4
:1004B0000064004008B50D480D4B03600323436002
:1004C00000238360C3604FF4002202614FF44012A6
:1004D0004261037643768376C3760377437700F0F1
:1004E000DBFA00B908BDFFF7C3FF00BF40060020DC
:1004F0000068004008B50A480A4B03600A4B436095
:100500004FF4805383600023C36003610C22426177
:100510008361C36101F022FD00B908BDFFF7A8FFA8
:10052000F805002000100140A086010000B595B03C
:100530003022002108A803F037FD00230393049321
:100540000593069307930193204A116C41F0805163
:100550001164126C02F080520192019A02931C4BBA
:100560001A6842F440421A601B6803F44043029345
:10057000029B012308934FF48033099302230E93C7
:100580004FF480020F9206221092A8221192129329
:100590000423139308A800F081FF98B90F23039355
:1005A00002230493002305934FF4A05306934FF4C2
:1005B00080530793052103A801F0C0F920B915B0B5
:1005C0005DF804FBFFF754FFFFF752FF00380240CD
:1005D0000070004008B500F033FAFFF7A7FFFFF7FF
:1005E000E1FEFFF70FFFFFF745FFFFF763FFFFF7A0
:1005F00081FF01F0EFFC0C4A00210C4801F018FDCE
:100600000B4B18600B4A00210B4801F011FD0B4BFE
:1006100018600B4A00210B4801F00AFD0A4B1860D4
:1006200001F0EAFCFEE700BF884500083904000835
:10063000940500206445000843040008900500204C
:10064000404500084D0400088C05002000B583B02B
:10065000002200920D4B596C41F480415964596C51
:1006600001F48041009100990192196C41F0805190
:1006700019641B6C03F080530193019B0F216FF0F1
:10068000010000F039FC03B05DF804FB00380240C3
:1006900010B58AB000230593069307930893099336
:1006A0000368464A934204D0454A93423CD00AB07C
:1006B00010BD444A136801331360012B27D0002476
:1006C0000194414B1A6B42F008021A631B6B03F052
:1006D00008030193019B03230593022206920893CA
:1006E0000923099305A9394800F0D4FD22460521C4
:1006F000132000F001FC132000F00EFC224605211F
:10070000152000F0F9FB152000F006FCCFE70023D0
:1007100000932D4B1A6C42F000721A641B6C03F0AC
:1007200000730093009BCAE700230293264B1A6CC8
:1007300042F080621A641B6C03F080630293029B98
:10074000204A136801331360012B29D0002404943C
:100750001D4B1A6B42F002021A631B6B03F002037B
:100760000493049B4FF44053059302230693032301
:1007700008930923099305A9154800F08BFD22462B
:1007800005213F2000F0B8FB3F2000F0C5FB2246CA
:100790000521412000F0B0FB412000F0BDFB86E7C1
:1007A00000230393084B1A6C42F000721A641B6C0E
:1007B00003F000730393039BC8E700BF006400408D
:1007C000006800409006002000380240000C024003
:1007D0000004024030B589B00023039304930593CD
:1007E00006930793026803F1804303F588339A4226
:1007F00001D009B030BD04460025019503F59433BE
:100800005A6C42F010025A645A6C02F010020192C3
:10081000019A02951A6B42F002021A631B6B03F0F5
:1008200002030293029BC023039302230493032336
:1008300006930723079303A90E4800F02BFD0E48EB
:100840000E4B03604FF0006343608560C5604FF45A
:100850008063036145618561C5610562456200F0A1
:10086000C5FB18B9044BE3639C63C2E7FFF700FEC6
:10087000F8E700BF000402409805002040640240F1
:1008800030B589B0044600230193214B1A6C42F025
:1008900002021A641B6C03F002030193019B02A97C
:1008A00003A801F021F9069BCBB901F0FDF803463E
:1008B000184AA2FB03239B0C013B1748174A02600E
:1008C00040F2E732C26043600023036183608361CA
:1008D00001F08EFA054630B1284609B030BD01F06E
:1008E000E3F84300E4E70C4801F01EF90546002850
:1008F000F2D11D2000F010FB0F2C01D90125EBE7F0
:10090000002221461D2000F0F7FA054B1C60E3E7AA
:100910000038024083DE1B439406002000040040A0
:1009200008000020FEE7FEE7FEE7FEE7FEE770476F
:1009300008B5024800F063F908BD00BF6806002052
:1009400008B5024800F05BF908BD00BF680600204A
:1009500008B5024801F030F908BD00BF9406002038
:1009600008B5024800F0A8FB08BD00BF98050020AC
:1009700008B5024800F043F908BD00BF400600205A
:1009800008B5024800F03BF908BD00BF4006002052
:1009900010B503460C4A0D490D48006840B10C489B
:1009A00000680344521A934206D8094A136010BDE6
:1009B0000748084C0460F2E703F07EFB0C23036059
:1009C0004FF0FF30F3E700BF0000032000040000F9
:1009D000DC060020C8550020034AD2F8883043F4D2
:1009E0007003C2F88830704700ED00E0DFF834D0C3
:1009F000FFF7F2FF0C480D490D4A002302E0D458DE
:100A0000C4500433C4188C42F9D30A4A0A4C002358
:100A100001E013600432A242FBD303F053FBFFF763
:100A2000D9FD704700000320000000207005002061
:100A3000E045000870050020C4550020FEE70000D6
:100A400008B50B4B1A6842F400721A601A6842F437
:100A500080621A601A6842F480721A60032000F003
:100A600039FA0F20FFF70CFFFFF7F0FD002008BD5B
:100A7000003C0240034A1168034B1B780B4413608F
:100A8000704700BFE006002004000020014B1868FA
:100A9000704700BFE0060020002800F0A18038B5B4
:100AA000044690F82030D3B12268136843F0010364
:100AB0001360FFF7EBFF054623685A6812F0010F39
:100AC00010D1FFF7E3FF401B0A28F5D9636A43F40E
:100AD00000336362052384F82030012038BDFFF71E
:100AE000D7FDE1E71A6822F002021A60FFF7CEFF95
:100AF000054623685A6812F0020F0DD0FFF7C6FFB3
:100B0000401B0A28F5D9636A43F400336362052366
:100B100084F820300120E1E7227E012A3DD01A68C6
:100B200022F080021A60637E012B3BD0226813689A
:100B300023F040031360A37E012B39D02268136891
:100B400023F020031360E37E012B37D02268136863
:100B500043F010031360237F012B35D02268136804
:100B600023F008031360637F012B33D022681368DE
:100B700023F004031360A368E2681343226913435C
:100B8000626913436268013A21681343CB61002014
:100B90006062012384F82030A0E71A6842F08002E6
:100BA0001A60C0E72268136843F040031360C2E78D
:100BB0002268136843F020031360C4E722681368B7
:100BC00023F010031360C6E72268136843F008039C
:100BD0001360C8E72268136843F004031360CAE790
:100BE00001207047704770477047704770477047E3
:100BF00070477047704770477047704770472DE9DE
:100C0000F84F054603685C69D3F804809F68D3F801
:100C10000CA0D3F81090D3F818B014F001063BD014
:100C200017F0010616D001229A6017F0020F08D1C2
:100C300017F0040F0CD117F0080606D04FF48056B9
:100C400008E0FFF7CFFF002604E0FFF7CEFF01E04A
:100C50004FF4006617F4807F0DD02B684FF480723C
:100C60009A6017F4007F40F0968017F4806F00F0D0
:100C7000968046F4005617F4803F0DD02B684FF451
:100C800080329A6017F4003F40F0938017F4802F71
:100C900000F0938046F4004614F0080F07D01AF0D5
:100CA000100F04D046F400762B681022DA6014F09E
:100CB000040F03D01AF0080F40F0898014F0020FDF
:100CC00005D02B68DB6813F0030F40F0878014F029
:100CD000400F07D019F0100F04D046F480662B683F
:100CE00010221A6114F0200F02D019F0080F79D1E8
:100CF00014F0100F04D02B681B6913F0030F78D188
:100D000014F4003F02D018F0100F76D114F4803F95
:100D100002D018F0080F77D114F4004F37D018F034
:100D2000040F31D014F4807F04D01BF0010F01D0E8
:100D300046F0010614F4007F04D01BF0020F01D02E
:100D400046F0020614F4806F04D01BF0040F01D0AB
:100D500046F0040614F4006F16D01BF0700B13D08D
:100D6000BBF1400F66D056D8BBF1200F5CD0BBF171
:100D7000300F5CD0BBF1100F01D146F008062A6895
:100D8000936923F0700393612B6804225A60002E4C
:100D900056D1BDE8F88F2846FFF725FF6BE717F41B
:100DA000006F02D046F4804665E72846FFF71EFF35
:100DB00061E72846FFF718FF6EE717F4002F02D00F
:100DC00046F4803668E72846FFF711FF64E72B6892
:100DD0000822DA602846FFF70CFF6FE72846FFF786
:100DE00007FF74E72B6808221A612846FFF703FF04
:100DF0007EE72846FFF7FEFE82E72B6810225A6046
:100E00002846FFF7F9FE81E72B6808225A6028463A
:100E1000FFF7F3FE80E7BBF1500F0ED0BBF1600F80
:100E2000ADD146F48076AAE746F01006A7E746F073
:100E30002006A4E746F04006A1E746F080069EE7BC
:100E40006B6A33436B622846FFF7D8FEA1E70000C8
:100E5000002807DB00F01F02400901239340024AEB
:100E600042F82030704700BF00E100E0002808DBB6
:100E70000901C9B200F1604000F5614080F800133B
:100E8000704700F00F000901C9B2014B19547047B7
:100E900014ED00E000B500F00700C0F1070CBCF154
:100EA000040F28BF4FF0040C031D062B0FD9C31EDF
:100EB0004FF0FF3E0EFA0CF021EA000199400EFAC5
:100EC00003FE22EA0E0241EA02005DF804FB002361
:100ED000EEE70000074AD36823F4E0631B041B0C11
:100EE000000200F4E060034343F0BF6343F40033C7
:100EF000D360704700ED00E010B50446054BD8689C
:100F0000C0F30220FFF7C6FF01462046FFF7AEFF01
:100F100010BD00BF00ED00E008B5FFF799FF08BD68
:100F200010B40368D9B210390A4AA2FB014212096F
:100F3000094CA25CC2655F2907D96FF3090304332A
:100F40008365806D5DF8044B70476FF3090383651B
:100F5000F7E700BFABAAAAAAC4450008836A826962
:100F600092B9012B0AD0022B02D00BB1002070479E
:100F7000C36A13F0807F28D100207047C36AB3F1A1
:100F8000C07F24D000207047B2F5005F09D0022B4B
:100F900025D9032B25D1C36A13F0807F23D10020EC
:100FA0007047032B03D8DFE803F01404140A002071
:100FB0007047C36A13F0807F0DD100207047C36A69
:100FC000B3F1C07F09D00020704701207047012095
:100FD00070470120704701207047012070470120B1
:100FE00070470020704701207047000070B504462C
:100FF000FFF74CFD002C5BD00546022384F835300A
:10100000002384F834302268136823F0010313604E
:1010100023681A6812F0010F0AD0FFF737FD431B4F
:10102000052BF5D920236365032084F8350070BDB6
:101030001A68204911406268A0680243E0680243D0
:101040002069024360690243A0690243E0690243E8
:10105000206A02430A43616A04291ED01A60266886
:10106000756925F00705636A1D43042B07D1A36A40
:101070001D43E36A1BB12046FFF770FF90B975610D
:101080002046FFF74DFFE26D3F2393408360002031
:101090006065012384F83530C9E7E16A206B0143BC
:1010A0000A43DBE740236365012084F83500BEE78F
:1010B0000120BCE73F8010F0F0B583B00446002368
:1010C0000193724B1D68724BA3FB0535AD0A876D0A
:1010D0003E68C26D08239340334210D003681A68FB
:1010E00012F0040F0BD01A6822F004021A60C26DCD
:1010F00008239340BB60436D43F001034365E26DF9
:1011000001239340334209D02268526912F0800FC4
:1011100004D0BB60636D43F002036365E26D04239A
:101120009340334209D02268126812F0020F04D0B3
:10113000BB60636D43F004036365E26D102393406D
:10114000334224D02268126812F0080F1FD0BB600F
:1011500023681A6812F4802F0DD01B6813F4002F37
:1011600004D1236C9BB12046984710E0A36C73B167
:10117000204698470BE01A6812F4807F03D11A6862
:1011800022F008021A60236C0BB120469847E26DEA
:1011900020239340334255D02268126812F0100F7A
:1011A00050D0BB6094F83530DBB2052B0ED02368ED
:1011B0001A6812F4802F33D01B6813F4002F2AD141
:1011C000636C002B3ED0204698473BE022681368B2
:1011D00023F0160313602268536923F080035361E0
:1011E000236CA3B12268136823F008031360E26D37
:1011F0003F239340BB60012384F83530002384F8FB
:101200003430236D002B3FD0204698473CE0A36C40
:10121000002BE7D1EBE7E36BA3B12046984711E041
:101220001A6812F4807F09D11A6822F010021A603D
:10123000012384F83530002384F83430E36B0BB19C
:1012400020469847636DFBB1636D13F0010F17D013
:10125000052384F835302268136823F001031360F6
:10126000019B01330193AB4204D823681B6813F040
:10127000010FF5D1012384F83530002384F8343090
:10128000E36C0BB12046984703B0F0BD000000208E
:10129000B5814E1B00230F2B00F2F68070B582B093
:1012A00066E085684FEA430E032404FA0EF425EA4B
:1012B0000405CC6804FA0EF42C438460446824EAE4
:1012C00002044A68C2F300129A40224342605DE081
:1012D000DC08083450F8242003F00705AD004FF077
:1012E0000F0E0EFA05FE22EA0E0E0A69AA4042EA25
:1012F0000E0240F824205DE0092200E0002202FAFC
:101300000EF22A430234614D45F82420604A946865
:101310006FEA0C0224EA0C054E6816F4801F01D017
:101320004CEA04055A4CA560E46802EA04054E68DC
:1013300016F4001F01D04CEA0405554CE5606468C2
:1013400002EA04054E6816F4003F01D04CEA040599
:101350004F4C6560246822404D6815F4803F01D0F1
:101360004CEA04024A4C226001330F2B00F28A80BF
:1013700001229A400C6804EA020C32EA0404F3D118
:101380004C6804F00304013C012C8AD94A6802F03D
:101390000302032A09D0C4685D000322AA4024EA9C
:1013A00002048A68AA402243C2604A6802F003022B
:1013B000022A8DD004684FEA430E032202FA0EF28D
:1013C00024EA02044A6802F0030202FA0EF22243FF
:1013D00002604A6812F4403FC6D0002201922D4AB2
:1013E000546C44F480445464526C02F48042019280
:1013F000019A9C08A51C254A52F8255003F0030EBB
:101400004FEA8E0E0F2202FA0EF225EA0205224A58
:1014100090423FF473AF02F58062904222D002F511
:101420008062904220D002F5806290421ED002F588
:10143000806290421CD002F5806290421AD002F580
:101440008062904218D002F58062904216D002F578
:101450008062904214D002F5806290423FF44CAF1B
:101460000A224CE701224AE7022248E7032246E724
:10147000042244E7052242E7062240E707223EE72E
:1014800008223CE702B070BD704700BF0038014041
:10149000003C01400038024000000240002800F0FB
:1014A000E08170B582B00446036813F0010F3BD0B1
:1014B0009F4B9B6803F00C03042B2CD09C4B9B6828
:1014C00003F00C03082B21D06368B3F5803F4FD0A5
:1014D000B3F5A02F52D0964B1A6822F480321A60CE
:1014E0001A6822F480221A606368002B50D0FFF73C
:1014F000CDFA05468E4B1B6813F4003F14D1FFF75D
:10150000C5FA401B6428F5D90320B1E1884B5B681C
:1015100013F4800FD8D0864B1B6813F4003F03D020
:101520006368002B00F09F81236813F0020F54D0F2
:101530007F4B9B6813F00C0F3ED07D4B9B6803F0F4
:101540000C03082B33D0E368002B68D0794B0122C1
:101550001A60FFF79BFA0546754B1B6813F0020FE4
:1015600054D1FFF793FA401B0228F5D903207FE1FD
:101570006F4A136843F480331360B5E76C4B1A6805
:1015800042F480221A601A6842F480321A60ABE793
:10159000FFF77CFA0546664B1B6813F4003FC3D087
:1015A000FFF774FA401B6428F5D9032060E1604B13
:1015B0005B6813F4800FC6D15D4B1B6813F0020FFC
:1015C00003D0E368012B40F05081594A136823F09F
:1015D000F803216943EAC1031360236813F0080F7D
:1015E00042D063696BB3534B0122C3F8802EFFF7DF
:1015F0004DFA05464E4B5B6F13F0020F34D1FFF7E7
:1016000045FA401B0228F5D9032031E1484A136806
:1016100023F0F803216943EAC1031360DDE7454B7A
:1016200000221A60FFF732FA0546414B1B6813F09F
:10163000020FD2D0FFF72AFA401B0228F5D9032067
:1016400016E13C4B0022C3F8802EFFF71FFA054637
:10165000374B5B6F13F0020F06D0FFF717FA401BF2
:101660000228F5D9032003E1236813F0040F77D093
:101670002F4B1B6C13F0805F33D1002301932C4B55
:101680001A6C42F080521A641B6C03F08053019371
:10169000019B0125284B1B6813F4807F23D0A3688E
:1016A000012B34D0052B38D0214B1A6F22F00102C8
:1016B0001A671A6F22F004021A67A368002B3DD044
:1016C000FFF7E4F906461A4B1B6F13F0020F46D1E1
:1016D000FFF7DCF9801B41F288339842F3D90320ED
:1016E000C6E00025D6E7144A136843F480731360FC
:1016F000FFF7CCF90646104B1B6813F4807FCED160
:10170000FFF7C4F9801B0228F5D90320B0E0084A8E
:10171000136F43F001031367CFE7054B1A6F42F0D5
:1017200004021A671A6F42F001021A67C5E700BF88
:10173000003802400000474200700040FFF7A6F961
:101740000646524B1B6F13F0020F08D0FFF79EF9AD
:10175000801B41F288339842F3D9032088E0EDB929
:10176000A369002B00F08380484A926802F00C02C3
:10177000082A51D0022B17D0454B00221A66FFF7DA
:1017800085F90446414B1B6813F0007F42D0FFF7F8
:101790007DF9001B0228F5D9032069E03B4A136C50
:1017A00023F080531364DBE7394B00221A66FFF7FE
:1017B0006DF90546354B1B6813F0007F06D0FFF727
:1017C00065F9401B0228F5D9032051E0E369226A3C
:1017D0001343626A43EA8213A26A5208013A43EA57
:1017E0000243E26A43EA0263284A5360284B01221B
:1017F0001A66FFF74BF90446244B1B6813F0007F71
:1018000006D1FFF743F9001B0228F5D903202FE08A
:1018100000202DE000202BE0012B2BD01B4B5B6820
:1018200003F48001E269914226D103F03F02216A6C
:101830008A4223D1616A47F6C0721A40B2EB811F17
:101840001ED103F44031A26A5208013AB1EB024FB3
:1018500018D103F07063E26AB3EB026F14D1002079
:1018600006E001207047012002E0012000E0002096
:1018700002B070BD0120FBE70120F9E70120F7E786
:101880000120F5E70120F3E70120F1E700380240ED
:101890000000474208B5264B9B6803F00C03042B5D
:1018A00041D0082B41D1224B5A6802F03F025B68BD
:1018B00013F4800F12D01E4B5968C1F388111D48D4
:1018C0000023A1FB0001FEF773FC194B5B68C3F317
:1018D000014301335B00B0FBF3F008BD144B5868C3
:1018E000C0F388104FEA401CBCEB000C6EEB0E0EF0
:1018F0004FEA8E1343EA9C634FEA8C11B1EB0C0163
:1019000063EB0E03DB0043EA5173C90011EB000CDB
:1019100043F10003990200234FEA8C2041EA9C51D5
:10192000FEF746FCD1E70348D7E70348D5E700BFF9
:1019300000380240001BB7000024F400002800F02B
:101940009B8070B50D4604464F4B1B6803F00F0398
:101950008B4208D2CBB24C4A1370136803F00F03CA
:101960008B4240F08B80236813F0020F17D013F0E6
:10197000040F04D0454A936843F4E053936023680E
:1019800013F0080F04D0414A936843F46043936016
:101990003E4A936823F0F003A1680B4393602368E9
:1019A00013F0010F32D06368012B21D09A1E012A57
:1019B00025D9364A126812F0020F61D033498A687D
:1019C00022F0030213438B60FFF760F806462F4BAB
:1019D0009B6803F00C036268B3EB820F16D0FFF72D
:1019E00055F8801B41F288339842F0D9032042E039
:1019F000264A126812F4003FE0D101203BE0234A5E
:101A0000126812F0007FD9D1012034E01E4B1B6810
:101A100003F00F03AB4207D9EAB21B4B1A701B68E5
:101A200003F00F03AB422DD1236813F0040F06D04F
:101A3000164A936823F4E053E1680B4393602368EC
:101A400013F0080F07D0114A936823F4604321690B
:101A500043EAC1039360FFF71DFF0C4B9B68C3F380
:101A600003130B4AD35CD8400A4B18600A4B186822
:101A7000FEF706FF002070BD012070470120FAE745
:101A80000120F8E70120F6E7003C02400038024060
:101A9000B44500080000002008000020014B186831
:101AA000704700BF0000002008B5FFF7F7FF044BA8
:101AB0009B68C3F38223034AD35CD84008BD00BFB0
:101AC00000380240AC45000808B5FFF7E7FF044BBB
:101AD0009B68C3F34233034AD35CD84008BD00BFC0
:101AE00000380240AC4500080F2303600B4B9A6896
:101AF00002F0030242609A6802F0F00282609A6883
:101B000002F4E052C2609B68DB0803F4E053036117
:101B1000034B1B6803F00F030B6070470038024053
:101B2000003C02407047000090F83D30DBB2012BD2
:101B300037D1022380F83D300268D36843F00103B7
:101B4000D3600368194A934220D0B3F1804F1DD06F
:101B5000A2F57C42934219D002F58062934215D0DF
:101B600002F58062934211D002F5784293420DD083
:101B700002F57052934209D0A2F59432934205D0F7
:101B80001A6842F001021A60002070479A6802F059
:101B90000702062A07D01A6842F001021A600020E4
:101BA0007047012070470020704700BF00000140CF
:101BB000704770477047704770B504460368DE6829
:101BC0001D6915F0020F10D016F0020F0DD06FF046
:101BD00002021A610123037703689B6913F0030F64
:101BE0005ED0FFF7E6FF0023237715F0040F12D035
:101BF00016F0040F0FD023686FF004021A6102235D
:101C0000237723689B6913F4407F4FD02046FFF76A
:101C1000D0FF0023237715F0080F12D016F0080F1D
:101C20000FD023686FF008021A610423237723681A
:101C3000DB6913F0030F40D02046FFF7BAFF002303
:101C4000237715F0100F12D016F0100F0FD0236865
:101C50006FF010021A61082323772368DB6913F4FD
:101C6000407F31D02046FFF7A4FF0023237715F0F3
:101C7000010F02D016F0010F2DD115F0800F02D008
:101C800016F0800F2FD115F0400F02D016F0400F44
:101C900031D115F0200F02D016F0200F33D170BDD6
:101CA000FFF786FF2046FFF785FF9CE72046FFF7FA
:101CB0007FFF2046FFF77EFFABE72046FFF778FF68
:101CC0002046FFF777FFBAE72046FFF771FF20466F
:101CD000FFF770FFC9E723686FF001021A61204621
:101CE000FEF7BAFBC9E723686FF080021A6120464D
:101CF00000F0ABF8C7E723686FF040021A61204696
:101D0000FFF759FFC5E723686FF020021A612046EC
:101D100000F09AF8C3E700000368344A904212D0FA
:101D2000B0F1804F0FD0A2F57C4290420BD002F56B
:101D30008062904207D002F58062904203D002F5A3
:101D40007842904203D123F070034A681343274A34
:101D500090422AD0B0F1804F27D0A2F57C42904229
:101D600023D002F5806290421FD002F5806290423B
:101D70001BD002F57842904217D002F57052904283
:101D800013D002F5806290420FD002F5806290423B
:101D90000BD0A2F59832904207D002F580629042B3
:101DA00003D002F58062904203D123F44073CA68E5
:101DB000134323F080034A69134303608B68C362B3
:101DC0000B688362094B984203D003F58063984205
:101DD00001D10B69036301234361036913F0010F10
:101DE00003D0036923F00103036170470000014041
:101DF00040B310B5044690F83D30F3B1022384F8A7
:101E00003D30214651F8040BFFF786FF012384F88B
:101E1000463084F83E3084F83F3084F8403084F80F
:101E2000413084F8423084F8433084F8443084F8F8
:101E3000453084F83D30002010BD80F83C30FFF77D
:101E400071FEDBE7012070477047704710B504460C
:101E50000268136923F44053C1680B43136183681C
:101E600002691A4343691A43C3691A430168CB687C
:101E700023F4164323F00C031343CB600268536929
:101E800023F4407381690B4353610368314A9342E1
:101E900006D002F58062934202D0FFF705FE01E012
:101EA000FFF712FEE369B3F5004F29D000210318B4
:101EB00049411B1841F10001C90041EA5371DB009F
:101EC000181863684FEA83024FEA937341F10001E7
:101ED000FEF76EF9204AA2FB00314909642303FB97
:101EE00011031B013233A2FB03235B0903F0F00251
:101EF00002EB011203F00F03216813448B6010BD45
:101F00000023021843EB0301121841F10001C9003C
:101F100041EA5271D200101841F100016268921832
:101F20005B41FEF745F90C4AA2FB003149096423E5
:101F300003FB1103DB003233A2FB03235B095A00CE
:101F400002F4F87202EB011203F007032168134454
:101F50008B60D4E7001001401F85EB5160B310B5D2
:101F6000044690F8413013B3242384F841302268AA
:101F7000D36823F40053D3602046FFF767FF22683D
:101F8000136923F4904313612268536923F02A03F1
:101F900053612268D36843F40053D3600020606427
:101FA000202384F8413084F84230606310BD80F80B
:101FB0004030FEF70FFCD7E70120704708B54FF01F
:101FC000E0231B6901F010FC012800D108BD00F0DE
:101FD000D1F9FBE7EFF305832BB9064B186828B955
:101FE00001221A6070476FF0050070474FF0FF3014
:101FF000704700BF28100020EFF3058373B90A4B28
:102000001B68012B0DD110B50024084BDC77064B63
:1020100002221A6001F036F9204610BD6FF005006B
:1020200070474FF0FF3070472810002000ED00E0AF
:10203000F0B587B000240594EFF305847CBB70B342
:102040002AB31568936903B918235C1E372C4AD844
:10205000546814F0010F48D1566976B14FEA960CD6
:10206000946834B1D768B7F5D07F02D3176907B148
:10207000C6B92CB14FF0FF340EE04FF0800CEFE703
:10208000D4688CB9146994B14FF0FF3404E015465C
:10209000002418234FF0800C012C0AD0ACB1059815
:1020A00007B0F0BD0124F7E74FF0FF34F4E7002458
:1020B000F2E7146992680292019400930B4662461B
:1020C000294601F06FF80590E9E705AA019200930F
:1020D0000B461FFA8CF2294601F0A1F80128DED048
:1020E00000230593DBE70020DAE70020D8E708B5F6
:1020F000EFF3058333B908B9002008BD01F02EFACB
:102100000020FAE76FF00500F7E70000034B0360DB
:10211000034B0B6080231360704700BF880E0020C4
:10212000880C0020034B0360034B0B604FF480735B
:1021300013607047E80A0020E406002000F108035D
:1021400043604FF0FF328260C3600361002303608D
:10215000704700230361704743684B609A688A6048
:10216000516099600861036801330360704730B4BF
:102170000D68B5F1FF3F11D000F108031C465B6804
:102180001A68AA42FAD963684B6099608C606160F2
:10219000086103680133036030BC70470469F2E7EB
:1021A0000369416882688A60416851605A68824266
:1021B00006D0002202611A68013A1A601868704756
:1021C00082685A60F5E7000082B0002301930D4B4E
:1021D0001B68B3F1FF3F08D04FF0500383F3118821
:1021E000BFF36F8FBFF34F8FFEE74FF0500383F3C2
:1021F0001188BFF36F8FBFF34F8F019B002BFCD073
:1022000002B070470C00002008480068006880F3A6
:1022100008884FF0000080F3148862B661B6BFF3FF
:102220004F8FBFF36F8F00DF00BF000008ED00E0AD
:10223000DFF80C00016841F4700101607047000094
:1022400088ED00E04FF0807340F8043C21F001017C
:1022500040F8081C054B40F80C3C40F8202C6FF06F
:10226000020340F8243C4438704700BFC9210008ED
:10227000074B19680868B0E8F04F80F30988BFF38E
:102280006F8F4FF0000080F311887047AFF300802C
:10229000905100204FF0500383F31188BFF36F8FEC
:1022A000BFF34F8F0B4A136801331360012B00D02B
:1022B00070474FF0E023D3F8043D13F0FF0FF7D041
:1022C0004FF0500383F31188BFF36F8FBFF34F8F2D
:1022D000FEE700BF0C000020094B1B6843B94FF01C
:1022E000500383F31188BFF36F8FBFF34F8FFEE767
:1022F000013B034A13600BB983F31188704700BF99
:102300000C000020000000000000000000000000A1
:10231000EFF30980BFF36F8F154B1A681EF0100F93
:1023200008BF20ED108A20E9F04F10602DE9090068
:102330004FF0500080F31188BFF34F8FBFF36F8FC2
:1023400001F032F94FF0000080F3118809BC1968E0
:102350000868B0E8F04F1EF0100F08BFB0EC108A0C
:1023600080F30988BFF36F8F704700BFAFF3008021
:102370009051002008B54FF0500383F31188BFF34C
:102380006F8FBFF34F8F00F0E1FF28B14FF0E023D4
:102390004FF08052C3F8042D002383F3118808BD49
:1023A0004FF0E022002313619361054B1B68054940
:1023B000A1FB03139B09013B536107231361704782
:1023C00000000020D34D62104FF0E023D3F8002D21
:1023D0003D4B9A421CD04FF0E023D3F8002D3B4BED
:1023E0009A421ED030B583B0394B1A78D2B20192DE
:1023F000FF221A701B78DBB28DF803309DF8033092
:1024000003F05003334A1370334B07221A601BE06A
:102410004FF0500383F31188BFF36F8FBFF34F8FDB
:10242000FEE74FF0500383F31188BFF36F8FBFF3C4
:102430004F8FFEE7284A1368013B13609DF8033075
:102440005B00DBB28DF803309DF8033013F0800F92
:10245000F0D1214B1B68032B08D04FF0500383F3BE
:102460001188BFF36F8FBFF34F8FFEE71B021A4A2D
:10247000136003F4E0631360019BDBB2144A137032
:102480004FF0E024D4F8203D43F47003C4F8203D1D
:10249000D4F8203D43F07043C4F8203DFFF780FF9F
:1024A00000250E4B1D60FFF7C3FED4F8343F43F008
:1024B0004043C4F8343FFFF7A7FE01F075F8FFF77B
:1024C00083FE284603B030BD71C20F4170C20F4178
:1024D00000E400E0301000202C1000200C00002050
:1024E000EFF305830F2B0FD9114A9B5CDBB2114A26
:1024F00012789A4208D94FF0500383F31188BFF342
:102500006F8FBFF34F8FFEE74FF0E023D3F80C3D02
:1025100003F4E063084A1268934208D94FF050036D
:1025200083F31188BFF36F8FBFF34F8FFEE77047C0
:10253000F0E300E0301000202C100020124A12F0CE
:10254000070F1ED0D11D21F00701C1F570531344B0
:102550000A460E480260002141601344083B23F004
:1025600007030B48036059601960991A51601360A2
:10257000084B1960084B1960084B4FF000421A6075
:1025800070474FF47053E4E7541000204C100020C3
:10259000481000204010002044100020341000207B
:1025A000164B1A461B688342FBD3516802EB010CA1
:1025B000844509D0416800EB010C634509D00360F4
:1025C000904219D010607047406801445160104635
:1025D000F0E710B40A4C2468A3420BD05B6819449E
:1025E000416013681B680360904200D010605DF882
:1025F000044B70470460F7E7704700BF4C100020A1
:102600004810002038B5044600F092FE384B1B6895
:10261000B3B1384B1B681C4250D1002C50D004F190
:10262000080214F0070F02D022F007020832002A35
:1026300055D0314B1B68934253D330490C6804E0AA
:10264000FFF77CFFE5E721461C466368934202D210
:102650002368002BF7D1264B1B68A34243D00D689B
:10266000083523680B6063689B1A102B10D9A018DB
:1026700010F0070F08D04FF0500383F31188BFF319
:102680006F8FBFF34F8FFEE743606260FFF788FFF5
:10269000626819490B689B1A0B60194909688B42DB
:1026A00001D217490B60134B1B681343636000236F
:1026B0002360144A13680133136002E0002500E030
:1026C000002500F0CFFE15F0070F0ED04FF050039D
:1026D00083F31188BFF36F8FBFF34F8FFEE70025A1
:1026E000EFE70025EDE70025EBE7284638BD00BF02
:1026F0004810002034100020441000204C1000200E
:10270000401000203C100020002834D038B504468A
:10271000A0F1080550F8043C174A1268134208D18A
:102720004FF0500383F31188BFF36F8FBFF34F8FC8
:10273000FEE750F8081C41B14FF0500383F31188B5
:10274000BFF36F8FBFF34F8FFEE723EA020340F81A
:10275000043C00F0EDFD54F8041C084A13680B44D7
:1027600013602846FFF71CFF054A13680133136006
:1027700000F078FE38BD704734100020441000206F
:102780003810002010B50446FFF784FDA26BE36B00
:102790009A4204D00024FFF79FFD204610BD01247B
:1027A000F9E710B50446FFF775FDA36B23B90124C3
:1027B000FFF792FD204610BD0024F9E770B50446EE
:1027C0001546866B026C5AB903681BB100200136AE
:1027D000A66370BD806801F017F80023A360F6E7D8
:1027E0006DB94068FDF7FEFC6368226C13446360BA
:1027F000A268934219D3236863602846E7E7C0685C
:10280000FDF7F0FCE368226C51429B1AE3602268FA
:10281000934202D2A3680B44E360022D01D0002052
:10282000D5E726B1013E0020D1E72846CFE70020BA
:10283000CDE70346026C6AB110B50846D968114469
:10284000D9609C68A14201D31968D960D968FDF7A5
:10285000C9FC10BD704738B50546FFF71BFD95F85C
:10286000454064B201E0013C64B2002C0ADD6B6AB1
:1028700043B105F1240000F01DFF0028F3D000F063
:10288000ADFFF0E7FF2385F84530FFF725FDFFF7A3
:1028900001FD95F8444064B201E0013C64B2002CB3
:1028A0000ADD2B6943B105F1100000F003FF002899
:1028B000F3D000F093FFF0E7FF2385F84430FFF7F3
:1028C0000BFD38BD38B5E0B10D460446FFF7E2FC1C
:1028D0002368E26B216C01FB0230A0600020A06342
:1028E0006360013A02FB0133E360FF2384F8443064
:1028F00084F84530FDB9236963B9FFF7EDFC012089
:1029000038BD4FF0500383F31188BFF36F8FBFF3CF
:102910004F8FFEE704F1100000F0CCFE0028ECD051
:102920004FF0E0234FF08052C3F8042DBFF34F8FD8
:10293000BFF36F8FE1E704F11000FFF7FFFB04F135
:102940002400FFF7FBFBD8E738B51D46049C0B4677
:1029500049B92460E063236401212046FFF7B2FFF8
:1029600084F84C5038BD2260F4E740B94FF0500372
:1029700083F31188BFF36F8FBFF34F8FFEE710B55E
:1029800084B01C46844653B192B189B94FF05003CC
:1029900083F31188BFF36F8FBFF34F8FFEE74FF0C4
:1029A000500383F31188BFF36F8FBFF34F8FFEE7A0
:1029B0006AB150230393039B502B13D04FF0500365
:1029C00083F31188BFF36F8FBFF34F8FFEE70029AA
:1029D000EFD04FF0500383F31188BFF36F8FBFF335
:1029E0004F8FFEE7039B012384F8463000949DF847
:1029F00018306046FFF7A8FF204604B010BDF0B5C0
:102A000085B0019288B10F461D460446B1B1022D32
:102A100020D1E36B012B1DD04FF0500383F31188BD
:102A2000BFF36F8FBFF34F8FFEE74FF0500383F379
:102A30001188BFF36F8FBFF34F8FFEE7036C002B3E
:102A4000E5D04FF0500383F31188BFF36F8FBFF3CE
:102A50004F8FFEE700F0C8FE064658B9019B002BD9
:102A600048D04FF0500383F31188BFF36F8FBFF34B
:102A70004F8FFEE700263DE02A4639462046FFF705
:102A80009DFE636A7BB948B14FF0E0234FF080525E
:102A9000C3F8042DBFF34F8FBFF36F8FFFF71CFCFC
:102AA000012005B0F0BD04F1240000F003FE002871
:102AB000F4D04FF0E0234FF08052C3F8042DBFF361
:102AC0004F8FBFF36F8FE9E7FFF706FC0020E8E7C1
:102AD00002A800F035FE012619E0002384F84430F6
:102AE00021E0002384F8453023E02046FFF7B3FEC1
:102AF00000F0B8FCFFF7CEFBA26BE36B9A42BBD3AE
:102B0000022DB9D0019B002BDED0002EE0D0FFF7C4
:102B1000E3FB00F00DFCFFF7BDFB94F8442052B23C
:102B2000B2F1FF3FD9D094F8452052B2B2F1FF3F45
:102B3000D7D0FFF7D1FB01A902A800F00DFED8B94C
:102B40002046FFF71FFE0028CFD0019904F11000A6
:102B500000F07CFD2046FFF77EFE00F083FC00289D
:102B6000C8D14FF0E0234FF08052C3F8042DBFF3DB
:102B70004F8FBFF36F8FBDE72046FFF76CFE00F06D
:102B800071FC00208DE72DE9F84390B10F46164601
:102B90001C460546B1B1022C20D1EB6B012B1DD098
:102BA0004FF0500383F31188BFF36F8FBFF34F8F44
:102BB000FEE74FF0500383F31188BFF36F8FBFF32D
:102BC0004F8FFEE7036C002BE5D04FF0500383F3EB
:102BD0001188BFF36F8FBFF34F8FFEE7FFF780FCC5
:102BE000EFF311884FF0500383F31188BFF36F8F19
:102BF000BFF34F8FAA6BEB6B9A4206D3022C04D023
:102C0000002088F31188BDE8F88395F845904FFAC5
:102C100089F9AB6B224639462846FFF7CFFDB9F15B
:102C2000FF3F06D009F101035BB285F84530012072
:102C3000E7E76B6A0BB90120E3E705F1240000F038
:102C400039FD18B126B101203060DAE70120D8E75C
:102C50000120D6E7F0B585B0019290B10F46044649
:102C6000C1B100F0C1FD064600BB019B002B5ED048
:102C70004FF0500383F31188BFF36F8FBFF34F8F73
:102C8000FEE74FF0500383F31188BFF36F8FBFF35C
:102C90004F8FFEE7036C002BE3D04FF0500383F31C
:102CA0001188BFF36F8FBFF34F8FFEE700263EE022
:102CB00039462046FFF7BDFD013DA563236923B9D1
:102CC000FFF70AFB012005B0F0BD04F1100000F091
:102CD000F1FC0028F4D04FF0E0234FF08052C3F80D
:102CE000042DBFF34F8FBFF36F8FE9E7FFF7F4FABF
:102CF0000020E8E702A800F023FD012621E00023E0
:102D000084F8443029E0002384F845302BE0204645
:102D1000FFF7A1FD00F0A6FB09E02046FFF79BFDB1
:102D200000F0A0FB2046FFF73CFD00283FD1FFF755
:102D3000B1FAA56B002DBBD1019B002BD6D0002E84
:102D4000D8D0FFF7C9FA00F0F3FAFFF7A3FA94F826
:102D500044305BB2B3F1FF3FD1D094F845305BB261
:102D6000B3F1FF3FCFD0FFF7B7FA01A902A800F0F7
:102D7000F3FC0028D1D12046FFF713FD0028C6D070
:102D8000019904F1240000F061FC2046FFF763FD87
:102D900000F068FB0028CAD14FF0E0234FF08052CA
:102DA000C3F8042DBFF34F8FBFF36F8FBFE7002031
:102DB00089E700000023072B0CD8074A52F833207C
:102DC0000AB10133F7E7044A42F8331002EBC302B9
:102DD00050607047704700BF544C002070B50446E7
:102DE0000D461646FFF756FA94F844305BB2B3F13D
:102DF000FF3F0DD094F845305BB2B3F1FF3F0BD0ED
:102E0000FFF76AFAA36B5BB12046FFF724FD70BDA4
:102E1000002384F84430EDE7002384F84530EFE7E1
:102E20003246294604F1240000F028FCECE70000BB
:102E3000084B1B681B6823B9074B4FF0FF321A6021
:102E40007047044B1B68DB68DB685A68024B1A60EA
:102E5000704700BF044D00209C4C00202DE9F04736
:102E600080460D4617469946089EDDF824A00A9C28
:102E70009200A521206B01F097F8236B07F18042A7
:102E8000013A03EB820727F00707002D61D04FF0CE
:102E9000000CBCF10F0F09D815F80C3004EB0C0234
:102EA00082F8343013B10CF1010CF2E7002384F8FE
:102EB0004330372E00D93726E662E66400252565C3
:102EC000201DFFF746F904F11800FFF742F92461CD
:102ED000C6F13806A6616462C4F8985184F89C5122
:102EE0004FF4A072294604F1580001F05DF81B4B25
:102EF000E36503F168022266D03363660122002392
:102F0000C4E93C2343F20E33A4F8F8304AF6CD333B
:102F1000A4F8FA3041F23423A4F8FC304EF26D6389
:102F2000A4F8FE304DF6EC63A4F800310523A4F8B4
:102F300002310B23A4F804314A4641463846FFF7D4
:102F400081F92060BAF1000F01D0CAF80040BDE855
:102F5000F087002384F83430ABE700BFC052002074
:102F600038B5002407E004EB840293000E481844AF
:102F7000FFF7E4F80134372CF5D90C4D2846FFF75C
:102F8000DDF80B4C2046FFF7D9F80A48FFF7D6F8D2
:102F90000948FFF7D3F80948FFF7D0F8084B1D6040
:102FA000084B1C6038BD00BF304D00201C4D002078
:102FB000084D0020EC4C0020D84C0020C04C0020D4
:102FC000044D0020004D002010B50446FFF762F9C3
:102FD000224A136801331360214B1B685BB1214BFC
:102FE0001B686BB91E4B1B68DA6AE36A9A4207D802
:102FF0001B4B1C6004E01A4B1C601368012B29D08A
:10300000194A1368013313606364E06A174B1B6845
:10301000984201D9154B186000EB8000211D144B1C
:1030200003EB8000FFF798F8FFF756F90D4B1B688C
:103030007BB10B4B1B68DA6AE36A9A4209D24FF004
:10304000E0234FF08052C3F8042DBFF34F8FBFF33E
:103050006F8F10BDFFF784FFD2E700BFBC4C00208C
:1030600090510020B04C0020A04C0020B44C002017
:10307000304D002010B50446583000F0E7FF94F8BA
:103080009D3163B1012B11D0022B0ED04FF05003B4
:1030900083F31188BFF36F8FBFF34F8FFEE7206B71
:1030A000FFF732FB2046FFF72FFB10BD2046FFF74E
:1030B0002BFBFAE70F4B1B68D3B110B5FFF7EAF80B
:1030C0000D4BDB68DC68201DFFF76AF80B4A1368BC
:1030D000013B1360074A1368013B1360FFF7FCF8DC
:1030E0002046FFF7C7FF034B1B68002BE6D110BD3E
:1030F000704700BFD44C0020D84C0020BC4C0020AE
:1031000008B5FFF7D7FF074B1B68012BF9D94FF024
:10311000E0234FF08052C3F8042DBFF34F8FBFF36D
:103120006F8FEEE7304D002070B504460D46174B0B
:103130001E68174B18680430FFF732F8B4F1FF3FF0
:103140000DD03444124B1B685C60A64210D9114B61
:1031500018680F4B19680431FFF709F870BD002D8E
:10316000EFD00B4B196804310B48FEF7F5FFF5E77C
:103170000A4B1868064B19680431FEF7F8FF084B34
:103180001B68A342EAD9064B1C60E7E7B84C002055
:1031900090510020004D0020C04C0020044D002024
:1031A0009C4C002030B587B00B9C8CB10C9DC5B1F8
:1031B0004FF4D0750495049DB5F5D07F1AD04FF02B
:1031C000500383F31188BFF36F8FBFF34F8FFEE778
:1031D0004FF0500383F31188BFF36F8FBFF34F8F0E
:1031E000FEE74FF0500383F31188BFF36F8FBFF3F7
:1031F0004F8FFEE7049D0C9D2C63022485F89D41B2
:1032000000240394029505AC01940A9C0094FFF7F6
:1032100025FE0C98FFF7D8FE059807B030BD2DE9C4
:10322000F04385B00746884614461E469000FFF7D7
:10323000E9F910B381464FF4D070FFF7E3F9054682
:10324000A8B1C0F83090002380F89D31039302901C
:103250000D9B01930C9B0093334622464146384612
:10326000FFF7FCFD2846FFF7AFFE012007E04846C8
:10327000FFF74AFA4FF0FF3001E04FF0FF3005B0A2
:10328000BDE8F08310B588B000240594069407AA21
:1032900006A905A8FEF73AFF059B0293069B01933A
:1032A00000942346079A1A491A48FFF77BFF1A4BE6
:1032B0001860E8B100F05CFB01281AD14FF0500310
:1032C00083F31188BFF36F8FBFF34F8F134B1B68CE
:1032D0005833134A1360134B4FF0FF321A60124BEE
:1032E00001221A60114B00221A60FFF76DF803E00B
:1032F0000020B0F1FF3F01D008B010BD4FF05003E7
:1033000083F31188BFF36F8FBFF34F8FFEE700BFCA
:103310002845000801310008984C002090510020F9
:10332000100000209C4C0020B04C0020B84C002025
:10333000024A136801331360704700BF944C0020A9
:10334000014B1868704700BFB84C0020F8B53A4BE5
:103350001B68002B69D1394B1D6801351D60C5B94B
:10336000374B1B681B6843B14FF0500383F3118840
:10337000BFF36F8FBFF34F8FFEE7314A1168314BB8
:10338000186810601960304A136801331360FFF742
:103390004FFD2E4B1B68AB423DD900272C4B1B68C1
:1033A000DB6A03EB83039A002A4B9B58012B00D95D
:1033B0000127294B1B68002B3CD001273AE001274D
:1033C0001F4B1B681B6843B31D4B1B68DB68DC6825
:1033D00063689D4226D3261D3046FEF7E1FEA36AB0
:1033E0001BB104F11800FEF7DBFEE36A1B4A12680A
:1033F000934201D9194A136003EB83039A003146C3
:1034000014481044FEF7A8FEE26A114B1B68DB6A01
:103410009A42D4D2D4E70027D2E70C4B4FF0FF32C8
:103420001A60BBE7094A1360B8E70D4A1368013315
:10343000136000273846F8BD944C0020B84C00209B
:10344000044D0020004D0020A44C00209C4C002086
:1034500090510020304D0020A84C0020B44C00209A
:10346000AC4C002038B5354B1B6843B94FF05003C6
:1034700083F31188BFF36F8FBFF34F8FFEE7FEF723
:1034800009FF2E4B1A68013A1A601B68002B4FD1B6
:103490002B4B1B680BB900244BE00024294B1B6805
:1034A0001BB3284BDB68DC6804F11800FEF778FEDC
:1034B000251D2846FEF774FEE06A234B1B689842E0
:1034C00001D9214B186000EB800029461F4B03EB0C
:1034D0008000FEF741FEE26A1D4B1B68DB6A9A42E0
:1034E000DCD31C4B01221A60D8E70CB1FFF7A0FC1B
:1034F000194B1C6884B9174B1C68D4B14FF0E023FA
:103500004FF08052C3F8042DBFF34F8FBFF36F8F7E
:1035100001240EE0013C07D0FFF718FF0028F9D086
:103520000C4B01221A60F5E70B4B00221A60E2E710
:103530000024FEF7D1FE204638BD00BF944C002089
:10354000BC4C0020EC4C0020B44C0020304D00203E
:1035500090510020A84C0020AC4C002010B5A8B120
:103560000446104B1B6843B14FF0500383F311889E
:10357000BFF36F8FBFF34F8FFEE7FFF7D9FE002138
:103580002046FFF7D1FDFFF76DFF48B94FF0E0236C
:103590004FF08052C3F8042DBFF34F8FBFF36F8FEE
:1035A00010BD00BF944C0020224B1B681BB1224B66
:1035B00001221A607047204B00221A601F4B1B68C3
:1035C00003EB83018A001E498A585AB90BB1013BAB
:1035D000F6E74FF0500383F31188BFF36F8FBFF30B
:1035E0004F8FFEE7084603EB83018A0002445168CF
:1035F0004968516003EB830C4FEA8C0208320244A5
:1036000091420FD003EB830291000D4A0A445268A5
:10361000D1680C4A116009490B60136858330A4A93
:1036200013607047486862469100054A0A4450603A
:10363000E8E700BF944C0020A84C0020B44C0020C8
:10364000304D0020905100201000002058B110B5DE
:103650000C46094A11681831FEF789FD0121204600
:10366000FFF762FD10BD4FF0500383F31188BFF3E5
:103670006F8FBFF34F8FFEE79051002038B570B1C8
:103680000D4614460A4A11681831FEF765FD0CB163
:103690004FF0FF3521462846FFF746FD38BD4FF075
:1036A000500383F31188BFF36F8FBFF34F8FFEE793
:1036B0009051002038B5C368DC6824B304F11805C4
:1036C0002846FEF76DFD184B1B682BBB251D2846B1
:1036D000FEF766FDE06A154B1B68984201D9134B53
:1036E000186000EB80002946114B03EB8000FEF7C9
:1036F00033FDE26A0F4B1B68DB6A9A4211D9012045
:103700000D4B186038BD4FF0500383F31188BFF3A1
:103710006F8FBFF34F8FFEE729460848FEF71CFD69
:10372000E7E70020EEE700BF944C0020B44C0020F7
:10373000304D002090510020A84C0020EC4C00207F
:10374000034B1B680360034B1B684360704700BF5B
:10375000A44C0020B84C0020F8B5C8B10C46054672
:10376000F9B1FEF797FD1B4B19686B68C81A226800
:10377000B2F1FF3F26D0184E36682F68B74201D00D
:103780008B4224D9824215D80023236001241AE0F9
:103790004FF0500383F31188BFF36F8FBFF34F8F48
:1037A000FEE74FF0500383F31188BFF36F8FBFF331
:1037B0004F8FFEE75B1A134423602846FFF7C0FFD4
:1037C000002400E00024FEF787FD2046F8BD012418
:1037D000F9E700BFB84C0020A44C0020014B0122A7
:1037E0001A607047A84C0020054B1B6833B1054B8D
:1037F0001B680BB100207047022070470120704702
:10380000B04C0020944C002000283BD038B5044632
:103810001E4B1B68834208D04FF0500383F311887E
:10382000BFF36F8FBFF34F8FFEE7036D43B94FF0C8
:10383000500383F31188BFF36F8FBFF34F8FFEE701
:10384000013B0365C16AC26C91421DD00BB10020DF
:1038500038BD051D2846FEF7A3FCE06CE062C0F110
:103860003803A3610A4B1B68984201D9084B1860C2
:1038700000EB80002946074B03EB8000FEF76CFC51
:103880000120E5E7002070470020E1E7905100208B
:10389000B44C0020304D0020064B1A6813682BB939
:1038A0000123036023B9D368186870470023F8E741
:1038B000002070479452002008B541600061914299
:1038C0000CD8D21A83699A4201D3012008BD011D88
:1038D000094B1868FEF74BFC0020F7E79A4201D22B
:1038E000994206D2011D054B1868FEF740FC0020E6
:1038F000ECE70120EAE700BF90520020945200203C
:1039000030B583B0FEF7C6FC114B1B681BB1FEF748
:10391000E3FC03B030BD0F4D2846FEF70FFC0E4C04
:103920002046FEF70BFC0D4B1D600D4B1C60002369
:1039300000930C4B0C4A10210A20FFF716F8044B99
:1039400018600028E3D00949FFF734FADFE700BF29
:103950008C520020AC52002098520020945200203B
:103960009052002094510020E4510020304500087E
:1039700010B588B0FFF7C4FF124B1B68CBB1002411
:103980000594069407AA06A905A8FEF7CBFB059B9C
:103990000293069B0193022300932346079A0A4948
:1039A0000A48FFF7FFFB0A4B186010B1012008B06E
:1039B00010BD4FF0500383F31188BFF36F8FBFF337
:1039C0004F8FFEE78C52002038450008D53C000898
:1039D00088520020B8B19C4603461848006858B386
:1039E00000B585B000910192029305291CDCFFF718
:1039F000FBFE022810D000231A4669460F480068D3
:103A0000FEF7FDFF15E04FF0500383F31188BFF37D
:103A10006F8FBFF34F8FFEE70023069A6946074872
:103A20000068FEF7ECFF04E0002362466946FFF7FA
:103A3000AAF805B05DF804FB002070478C52002006
:103A400070B582B01B4B1B681A6862B3DB681E68D6
:103A5000DC68251D2846FEF7A3FB236A204698470D
:103A600094F8283013F0040FECD0A36933449E423D
:103A700007D26360246129460E4B1868FEF777FB76
:103A8000E0E7002100910B4632462046FFF7A2FFF7
:103A90000028D7D14FF0500383F31188BFF36F8F05
:103AA000BFF34F8FFEE7044A1068024908601360B5
:103AB00002B070BD945200209052002038B50546E7
:103AC000FFF73EFC0446074B1B68834205D80023E2
:103AD0002B60044B1C60204638BDFFF7B1FF01236B
:103AE0002B60F6E78452002070B582B006460D4682
:103AF00017490968C968CC68201DFEF751FB94F886
:103B000028C01CF0040F08D12CF0010C84F828C048
:103B1000236A2046984702B070BDA16933462A4601
:103B200031442046FFF7C8FE0028F1D00021009163
:103B30000B4632462046FFF74DFF0028E8D14FF0F4
:103B4000500383F31188BFF36F8FBFF34F8FFEE7EE
:103B50009452002070B582B006460C46FFF7E8FB91
:103B600001A8FFF7ABFF019B33BB0546E4B9B042A8
:103B700013D22246711B124B1868FFF72FF9FFF77B
:103B800071FCD8B94FF0E0234FF08052C3F8042DF8
:103B9000BFF34F8FBFF36F8F10E0FFF763FC294631
:103BA0003046FFF7A1FF09E0064A126812680AB919
:103BB0000124DEE71C46DCE7FFF754FC02B070BDD1
:103BC0008C5200209052002010B588B002E0049B77
:103BD000002B0FDA002204A93D4B1868FFF73AF8D2
:103BE000002873D0049B002BF1DA07990698059BF7
:103BF0009847ECE7069C636913B1201DFEF7D0FAE5
:103C000003A8FFF75BFF049B092BE3D8DFE803F071
:103C10000505053037500505303794F8283043F056
:103C2000010384F82830059BA16902461944204607
:103C3000FFF742FE0028CDD0236A2046984794F82B
:103C4000283013F0040FC5D0A269002100910B4663
:103C5000059802442046FFF7BDFE0028BAD14FF078
:103C6000500383F31188BFF36F8FBFF34F8FFEE7CD
:103C700094F8283023F0010384F82830AAE794F858
:103C8000283043F0010384F828300599A16131B14F
:103C90000346024601442046FFF70EFE9AE74FF026
:103CA000500383F31188BFF36F8FBFF34F8FFEE78D
:103CB00094F8283013F0020F04D023F0010384F8A5
:103CC000283087E72046FEF71FFD83E708B010BDC8
:103CD0008C52002000B583B001A8FFF7DDFD0199EB
:103CE000FFF738FFFFF770FFF6E700002DE9F04718
:103CF000089D0E4604460F46002B4AD194468C453B
:103D0000B2FA82F260D942B1C2F12003974020FAA0
:103D100003F30CFA02FC1F4394404FEA1C4E1FFAB7
:103D20008CF6B7FBFEF1230C0EFB117743EA074339
:103D300001FB06F098420AD91CEB030301F1FF379F
:103D400080F01581984240F21281023963441B1AB7
:103D5000A4B2B3FBFEF00EFB103344EA034400FBB5
:103D600006F6A6420AD91CEB040400F1FF3380F0EA
:103D70000081A64240F2FD806444023840EA0140DE
:103D8000A41B00211DB1D4400023C5E90043BDE8B8
:103D9000F0878B4205D90DB1C5E900010021084625
:103DA000F5E7B3FA83F1002946D1B34202D3824248
:103DB00000F2F580841A66EB030201201746002DFD
:103DC000E5D0C5E90047E2E7002A40F09380A1EB87
:103DD0000C034FEA1C471FFA8CFE0121B3FBF7F6D8
:103DE00007FB1630230C43EA00430EFB06F0984213
:103DF00008D91CEB030306F1FF3802D2984200F207
:103E0000D08046461B1AA4B2B3FBF7F007FB103371
:103E100044EA03440EFB00FEA64508D91CEB04044B
:103E200000F1FF3302D2A64500F2B6801846A4EB9B
:103E30000E0440EA0640A5E7C1F120078B4022FAB4
:103E400007FC4CEA030C06FA01FE20FA07F426FAF6
:103E500007F344EA0E0400FA01F84FEA1C404FEA67
:103E60001449B3FBF0FE1FFA8CF600FB1E3349EA3F
:103E700003430EFB06F9994502FA01F20BD91CEB3C
:103E800003030EF1FF3A80F08580994540F282806D
:103E9000AEF1020E6344A3EB0909A4B2B9FBF0F33F
:103EA00000FB139944EA094403FB06F6A64208D92D
:103EB0001CEB040403F1FF3068D2A64266D9023B32
:103EC000644443EA0E40A41BA0FB02E6B4427346DE
:103ED000B14652D34FD05DB1B8EB030264EB090495
:103EE00004FA07F722FA01F31F43CC40C5E9007436
:103EF00000214CE7C2F1200120FA01F30CFA02FC88
:103F000026FA01F1964033434FEA1C471FFA8CFE14
:103F1000B1FBF7F007FB1016190C41EA064100FB54
:103F20000EF68E4204FA02F408D91CEB010100F1EE
:103F3000FF382DD28E422BD902386144891B9BB2A7
:103F4000B1FBF7F607FB161143EA014306FB0EF13E
:103F5000994208D91CEB030306F1FF3814D29942A9
:103F600012D9023E63445B1A46EA004136E73946FD
:103F7000EDE6184602E7F045ADD2BEEB020366EB74
:103F80000C060138B146A6E74646ECE7034698E73B
:103F90004046D3E7D6467EE76444023847E7084602
:103FA0000DE7023E63442DE7830730B547D0541E2A
:103FB000002A3ED0CAB2034601E0013C39D303F8DF
:103FC000012B9D07F9D1032C2CD9CDB205EB05258A
:103FD0000F2C05EB054535D9A4F1100222F00F0C8A
:103FE00003F1100EE6444FEA121C1A46C2E90055CE
:103FF000C2E9025510327245F8D10CF1010214F0F9
:104000000C0F03EB021204F00F0C13D0ACF10403FD
:1040100023F003030433134442F8045B9342FBD1BF
:104020000CF003042CB1C9B21C4403F8011BA342D9
:10403000FBD130BD64461346002CF4D1F9E70346AA
:104040001446C0E71A46A446E0E700BF194B1B68B8
:1040500083422ED0416C70B5054681B100268C5943
:104060003CB121462468284600F0C4F8002CF8D161
:10407000696C0436802EF2D1284600F0BBF8A96B9B
:1040800011B1284600F0B6F82C6C34B121462468F2
:10409000284600F0AFF8002CF8D1E96C11B12846A1
:1040A00000F0A8F86B6B1BB12846BDE870401847BC
:1040B00070BD704710000020014B1868704700BFAA
:1040C0001000002070B50F4B0F4DAB42A3EB05065F
:1040D00007D0B610002455F8043B01349847A64297
:1040E000F9D800F003FA094D094B5E1BAB424FEAC9
:1040F000A60606D0002455F8043B01349847A64292
:10410000F9D870BDD4450008D4450008D44500084E
:10411000DC450008704700BF704700BF024B13B179
:10412000024800F005B8704700000000294400086C
:10413000002301461A46184600F098B92DE9F843C5
:1041400006460820894600F083F9DFF8A48005467A
:10415000304600F04BF9D8F808305F6827F00307C5
:10416000A7F11104A4EB09042C44B4FBF5F4013CC1
:1041700005FB04F4A54208DC0021304600F042F9BA
:10418000D8F808303B44984205D0304600F034F966
:104190000020BDE8F8836142304600F033F9013079
:1041A0000FD0114AD8F808303F1B47F001075F6075
:1041B000136830461B1B136000F01EF90120BDE898
:1041C000F8830021304600F01DF9D8F80820831A42
:1041D0000F2BDADD43F001035360044B02491B68E7
:1041E000C01A0860D1E700BF085400205C0100201D
:1041F0006801002000297CD02DE9F0410C46804662
:1042000000F0F4F854F8043C754FA4F1080523F0CD
:1042100001016818BE684268864222F0030200F07D
:104220008380DE07426000EB020C33D454F8084C64
:10423000DCF804302D1B2144AC6807F1080C644500
:1042400003F0010364D0D5F80CE0C4F80CE0CEF81C
:104250000840002B00F0818041F001036B60016099
:10426000B1F5007F22D27868CB08012249090133D9
:104270008A40024357F833107A6007EBC302083ACA
:10428000C5E9021247F83350CD604046BDE8F04121
:1042900000F0B2B8DCF80430DB072BD541F00103A5
:1042A000B1F5007F44F8043C0160DCD3B1F5206F28
:1042B0004FEA512353D28B0903F1390003F138023D
:1042C000C300F818FB580838984203D161E09B6896
:1042D000984204D05A6822F003028A42F7D8D8687C
:1042E000C5E902308560DD604046BDE8F04100F080
:1042F00083B87047114407F1080C836863453FD0C9
:10430000C268DA60936041F001036B606950A7E70F
:10431000002B5FD10A44D0E90213CB60996042F0D0
:1043200001036B60AA50B0E7DB070A4407D454F8D6
:10433000083CED1A1A44D5E90213CB60996042F0AB
:1043400001036B60274BBD601B6893429DD8264BD1
:1043500040461968FFF7F2FE97E71144CDE7142BAA
:1043600008D9542B1DD80B0B03F16F0003F16E021B
:10437000C300A6E703F15C0003F15B02C300A0E702
:1043800041F00103C7E90455C5E902CC6B606950EF
:104390007BE779689210012404FA02F20A437A60FA
:1043A0009EE7B3F5AA7F06D8CB0B03F1780003F1A3
:1043B0007702C30085E740F25452934206D88B0C33
:1043C00003F17D0003F17C02C3007AE74FF47E73B2
:1043D0007E2276E741F001036B60016055E700BF84
:1043E0006801002060010020305400200148FFF7E0
:1043F00091BE00BFFC5300200148FFF78DBE00BFF7
:10440000FC53002038B5074D0022044608462A60B8
:10441000FCF7BEFA431C00D038BD2B68002BFBD044
:10442000236038BDF853002038B5074D074C2C1BCE
:10443000A41005D0013C55F8043D9847002CF9D153
:10444000BDE8384000F058B8E0450008DC450008F9
:10445000082802D14FF48050704708B5FFF72CFEB2
:10446000162303604FF0FF3008BD00BF2DE9F8436D
:104470001B4D0646286898460F469146FFF74AFEB0
:10448000184B1C681CB3286865681F2D22DC4EB9C8
:104490006B1C0235636044F82570FFF73DFE002079
:1044A000BDE8F88304EB85010123C1F88890D4F8B6
:1044B0008821AB401A43022EC4F88821C1F8088134
:1044C000E6D1D4F88C211A43C4F88C21E0E7064CDD
:1044D0001C60D8E7FFF720FE4FF0FF30E0E700BF99
:1044E000580100200454002034540020F8B500BFC7
:1044F000F8BC08BC9E467047F8B500BFF8BC08BCC5
:044500009E4670471C
:1045040052656D6F74655461736B0000556172740C
:104514005461736B000000004368617373697354E2
:1045240061736B0049444C4500000000546D7251A6
:1045340000000000546D72205376630004450008A7
:104544000000000000000000000000000000000067
:10455400000200000800000000000000000000004D
:1045640010450008000000000000000000000000EA
:10457400000000000002000008000000000000002D
:10458400000000001C4500080000000000000000BE
:1045940000000000000000000002000018000000FD
:1045A40000000000000000000000000001020304FD
:1045B40000000000000000000102030406070809CF
:0845C400000610160006101697
:0845CC0018BCFF7F0100000094
:0845D4001D41000881030008ED
:0445DC005903000877
:1045E0000024F4000100000010000000AAAAAAAAFA
:1045F000180000200000000000000000C052002051
:10460000285300209053002000000000000000000C
:10461000000000000000000000000000000000009A
:10462000000000000000000000000000000000008A
:10463000000000000000000000000000000000007A
:10464000000000000000000000000000000000006A
:10465000000000000000000000000000000000005A
:10466000000000000000000000000000000000004A
:10467000000000000000000000000000000000003A
:10468000000000000000000000000000000000002A
:1046900001000000000000000E33CDAB34126DE6C7
:1046A000ECDE05000B000000000000000000000030
:1046B00000000000000000000000000000000000FA
:1046C00000000000000000000000000000000000EA
:1046D00000000000000000000000000000000000DA
:1046E00000000000000000000000000000000000CA
:1046F00000000000000000000000000000000000BA
:1047000000000000000000000000000000000000A9
:104710000000000000000000000000000000000099
:104720000000000000000000000000000000000089
:10473000000000000000000000540020FFFFFFFF09
:104740000000020000000000000000000000000067
:104750006801002068010020700100207001002025
:1047600078010020780100208001002080010020D5
:104770008801002088010020900100209001002085
:104780009801002098010020A0010020A001002035
:10479000A8010020A8010020B0010020B0010020E5
:1047A000B8010020B8010020C0010020C001002095
:1047B000C8010020C8010020D0010020D001002045
:1047C000D8010020D8010020E0010020E0010020F5
:1047D000E8010020E8010020F0010020F0010020A5
:1047E000F8010020F8010020000200200002002053
:1047F0000802002008020020100200201002002001
:1048000018020020180200202002002020020020B0
:104810002802002028020020300200203002002060
:104820003802002038020020400200204002002010
:1048300048020020480200205002002050020020C0
:104840005802002058020020600200206002002070
:104850006802002068020020700200207002002020
:1048600078020020780200208002002080020020D0
:104870008802002088020020900200209002002080
:104880009802002098020020A0020020A002002030
:10489000A8020020A8020020B0020020B0020020E0
:1048A000B8020020B8020020C0020020C002002090
:1048B000C8020020C8020020D0020020D002002040
:1048C000D8020020D8020020E0020020E0020020F0
:1048D000E8020020E8020020F0020020F0020020A0
:1048E000F8020020F802002000030020000300204E
:1048F00008030020080300201003002010030020FC
:1049000018030020180300202003002020030020AB
:10491000280300202803002030030020300300205B
:10492000380300203803002040030020400300200B
:1049300048030020480300205003002050030020BB
:10494000580300205803002060030020600300206B
:10495000680300206803002070030020700300201B
:1049600078030020780300208003002080030020CB
:10497000880300208803002090030020900300207B
:104980009803002098030020A0030020A00300202B
:10499000A8030020A8030020B0030020B0030020DB
:1049A000B8030020B8030020C0030020C00300208B
:1049B000C8030020C8030020D0030020D00300203B
:1049C000D8030020D8030020E0030020E0030020EB
:1049D000E8030020E8030020F0030020F00300209B
:1049E000F8030020F8030020000400200004002049
:1049F00008040020080400201004002010040020F7
:104A000018040020180400202004002020040020A6
:104A10002804002028040020300400203004002056
:104A20003804002038040020400400204004002006
:104A300048040020480400205004002050040020B6
:104A40005804002058040020600400206004002066
:104A50006804002068040020700400207004002016
:104A600078040020780400208004002080040020C6
:104A70008804002088040020900400209004002076
:104A80009804002098040020A0040020A004002026
:104A9000A8040020A8040020B0040020B0040020D6
:104AA000B8040020B8040020C0040020C004002086
:104AB000C8040020C8040020D0040020D004002036
:104AC000D8040020D8040020E0040020E0040020E6
:104AD000E8040020E8040020F0040020F004002096
:104AE000F8040020F8040020000500200005002044
:104AF00008050020080500201005002010050020F2
:104B000018050020180500202005002020050020A1
:104B10002805002028050020300500203005002051
:104B20003805002038050020400500204005002001
:104B300048050020480500205005002050050020B1
:104B40005805002058050020600500206005002061
:04000005080009EDF9
:00000001FF
