:020000040800F2
:100000000000032009100008810E0008830E00087C
:10001000850E0008870E0008890E00080000000009
:10002000000000000000000000000000912C00080B
:100030008B0E000800000000312D0008D3290008B5
:1000400059100008591000085910000859100008EC
:1000500059100008591000085910000859100008DC
:1000600059100008591000085910000859100008CC
:1000700059100008591000085910000859100008BC
:100080005910000859100008591000088D0E00087A
:10009000591000089D0E000859100008591000085A
:1000A000591000085910000859100008591000088C
:1000B00059100008AD0E000859100008591000082A
:1000C000591000085910000859100008591000086C
:1000D000591000085910000859100008591000085C
:1000E000591000085910000859100008591000084C
:1000F000591000085910000859100008591000083C
:10010000591000085910000859100008591000082B
:10011000591000085910000859100008591000081B
:10012000591000085910000859100008591000080B
:10013000591000085910000859100008BD0E000899
:1001400059100008CD0E0008591000085910000879
:1001500059100008591000085910000859100008DB
:1001600059100008591000085910000859100008CB
:10017000591000085910000859100008000000002C
:1001800059100008591000085910000859100008AB
:10019000591000085910000859100008591000089B
:0C01A000000000000000000059100008E2
:1001B00070B54FF0FF0C4CF4E06C1CEA11541DBFFD
:1001C0001CEA135594EA0C0F95EA0C0F00F0DEF8C8
:1001D0002C4481EA030621EA4C5123EA4C5350EAAD
:1001E000013518BF52EA033541F4801143F48013FE
:1001F00038D0A0FB02CE4FF00005E1FB02E506F08F
:100200000042E0FB03E54FF00006E1FB03569CF0E3
:10021000000F18BF4EF0010EA4F1FF04B6F5007FE9
:1002200064F5407404D25FEA4E0E6D4146EB06065B
:1002300042EAC62141EA55514FEAC52040EA5E50E4
:100240004FEACE2EB4F1FD0C88BFBCF5E06F1ED88E
:10025000BEF1004F08BF5FEA500E50F1000041EBC5
:10026000045170BD06F0004646EA010140EA020072
:1002700081EA0301B4EB5C04C2BFD4EB0C0541EA94
:10028000045170BD41F480114FF0000E013C00F3A9
:10029000AB8014F1360FDEBF002001F0004170BDCD
:1002A000C4F10004203C35DA0C341BDC04F11404E6
:1002B000C4F1200500FA05F320FA04F001FA05F272
:1002C00040EA020001F0004221F0004110EBD3703F
:1002D00021FA04F642EB06015EEA430E08BF20EA6B
:1002E000D37070BDC4F10C04C4F1200500FA04F30E
:1002F00020FA05F001FA04F240EA020001F00041A0
:1003000010EBD37041F100015EEA430E08BF20EA12
:10031000D37070BDC4F1200500FA05F24EEA020E5A
:1003200020FA04F301FA05F243EA020321FA04F089
:1003300001F0004121FA04F220EA020000EBD37040
:100340005EEA430E08BF20EAD37070BD94F0000F40
:100350000FD101F00046400041EB010111F4801F74
:1003600008BF013CF7D041EA060195F0000F18BF25
:10037000704703F00046520043EB030313F4801F61
:1003800008BF013DF7D043EA0603704794EA0C0F1B
:100390000CEA135518BF95EA0C0F0CD050EA410631
:1003A00018BF52EA4306D1D181EA030101F00041AE
:1003B0004FF0000070BD50EA410606BF10461946D6
:1003C00052EA430619D094EA0C0F02D150EA0136E2
:1003D00013D195EA0C0F05D152EA03361CBF104623
:1003E00019460AD181EA030101F0004141F0FE41C2
:1003F00041F470014FF0000070BD41F0FE4141F446
:10040000780170BD81F0004102E000BF83F000433D
:1004100030B54FEA41044FEA430594EA050F08BF9F
:1004200090EA020F1FBF54EA000C55EA020C7FEA63
:10043000645C7FEA655C00F0E2804FEA5454D4EBE0
:100440005555B8BF6D420CDD2C4480EA020281EAAA
:10045000030382EA000083EA010180EA020281EAE2
:100460000303362D88BF30BD11F0004F4FEA013134
:100470004FF4801C4CEA113102D0404261EB410143
:1004800013F0004F4FEA03334CEA133302D05242C9
:1004900063EB430394EA050F00F0A780A4F1010485
:1004A000D5F1200E0DDB02FA0EFC22FA05F28018BF
:1004B00041F1000103FA0EF2801843FA05F35941A5
:1004C0000EE0A5F120050EF1200E012A03FA0EFC24
:1004D00028BF4CF0020C43FA05F3C01851EBE3714E
:1004E00001F0004507D54FF0000EDCF1000C7EEB6B
:1004F00000006EEB0101B1F5801F1BD3B1F5001FA9
:100500000CD349085FEA30004FEA3C0C04F10104C7
:100510004FEA445212F5800F80F09A80BCF1004FF0
:1005200008BF5FEA500C50F1000041EB045141EA72
:10053000050130BD5FEA4C0C404141EB0101013C3B
:1005400028BFB1F5801FE9D291F0000F04BF01462A
:100550000020B1FA81F308BF2033A3F10B03B3F1FC
:1005600020020CDA0C3208DD02F1140CC2F10C028C
:1005700001FA0CF021FA02F10CE002F11402D8BFEA
:10058000C2F1200C01FA02F120FA0CFCDCBF41EAB6
:100590000C019040E41AA2BF01EB0451294330BD85
:1005A0006FEA04041F3C1CDA0C340EDC04F1140462
:1005B000C4F1200220FA04F001FA02F340EA030039
:1005C00021FA04F345EA030130BDC4F10C04C4F17F
:1005D000200220FA02F001FA04F340EA030029465F
:1005E00030BD21FA04F0294630BD94F0000F83F4A9
:1005F000801306BF81F480110134013D4EE77FEA8C
:10060000645C18BF7FEA655C29D094EA050F08BFD7
:1006100090EA020F05D054EA000C04BF19461046B8
:1006200030BD91EA030F1EBF0021002030BD5FEAFC
:10063000545C05D14000494128BF41F0004130BD24
:1006400014F580043CBF01F5801130BD01F0004578
:1006500045F0FE4141F470014FF0000030BD7FEAEB
:10066000645C1ABF194610467FEA655C1CBF0B46E6
:10067000024650EA013406BF52EA033591EA030FFD
:1006800041F4002130BD00BF90F0000F04BF0021F5
:10069000704730B54FF4806404F132044FF0000528
:1006A0004FF0000150E700BF90F0000F04BF0021A1
:1006B000704730B54FF4806404F1320410F0004507
:1006C00048BF40424FF000013EE700BF42004FEA02
:1006D000E2014FEA31014FEA02701FBF12F07F437F
:1006E00093F07F4F81F06051704732F07F4208BF36
:1006F000704793F07F4F04BF41F40021704730B53D
:100700004FF4607401F0004521F000411CE700BF88
:1007100050EA010208BF704730B54FF000050AE00B
:1007200050EA010208BF704730B511F0004502D50C
:10073000404261EB41014FF4806404F132045FEA0E
:10074000915C3FF4D8AE4FF003025FEADC0C18BFB7
:1007500003325FEADC0C18BF033202EBDC02C2F1A9
:10076000200300FA03FC20FA02F001FA03FE40EA3B
:100770000E0021FA02F11444BDE600BF4FEA410227
:1007800012F5001215D211D56FF47873B3EB6252E3
:1007900012D94FEAC12343F0004343EA505311F00A
:1007A000004F23FA02F018BF404270474FF000009C
:1007B000704750EA013005D111F0004008BF6FF0DA
:1007C000004070474FF00000704700BF53B94AB96E
:1007D000002908BF00281CBF4FF0FF314FF0FF3049
:1007E00000F00CB8ADF1080C6DE904CE04F00EFA7F
:1007F000DDF804E0DDE9022304B07047704700BF74
:10080000844641EA000313F003036DD1403A41D31B
:1008100051F8043B40F8043B51F8043B40F8043BDA
:1008200051F8043B40F8043B51F8043B40F8043BCA
:1008300051F8043B40F8043B51F8043B40F8043BBA
:1008400051F8043B40F8043B51F8043B40F8043BAA
:1008500051F8043B40F8043B51F8043B40F8043B9A
:1008600051F8043B40F8043B51F8043B40F8043B8A
:1008700051F8043B40F8043B51F8043B40F8043B7A
:1008800051F8043B40F8043B51F8043B40F8043B6A
:10089000403ABDD2303211D351F8043B40F8043B0A
:1008A00051F8043B40F8043B51F8043B40F8043B4A
:1008B00051F8043B40F8043B103AEDD20C3205D31A
:1008C00051F8043B40F8043B043AF9D2043208D012
:1008D000D2071CBF11F8013B00F8013B01D30B8884
:1008E00003806046704700BF082A13D38B078DD062
:1008F00010F003038AD0C3F10403D21ADB071CBF34
:1009000011F8013B00F8013B80D331F8023B20F89D
:10091000023B7BE7043AD9D3013A11F8013B00F8D6
:10092000013BF9D20B7803704B7843708B7883705E
:10093000604670470348044B834202D0034B03B127
:100940001847704770050020700500200000000067
:100950000548064B1B1AD90F01EBA301491002D021
:10096000034B03B118477047700500207005002045
:100970000000000010B5064C237843B9FFF7DAFFFA
:10098000044B13B10448AFF300800123237010BD62
:1009900070050020000000000C54000808B5054B4D
:1009A0001BB105490548AFF30080BDE80840FFF7DB
:1009B000CFBF00BF00000000740500200C540008E9
:1009C00008B50D480D4B036003234360002383608B
:1009D000C3604FF4002202614FF44012426103767B
:1009E00043768376C3760377437700F063FB00B9E1
:1009F00008BD00F061F9FBE7B80500200064004085
:100A000008B50D480D4B036003234360002383604A
:100A1000C3604FF4002202614FF44012426103763A
:100A200043768376C3760377437700F043FB00B9C0
:100A300008BD00F041F9FBE7900500200068004088
:100A400010B58AB000230593069307930893099382
:100A50000368464A934204D0454A93423CD00AB0C8
:100A600010BD444A136801331360012B27D00024C2
:100A70000194414B1A6B42F008021A631B6B03F09E
:100A800008030193019B0323059302220692089316
:100A90000923099305A9394800F0B8FF224605212A
:100AA000132000F053FF132000F060FF22460521C1
:100AB000152000F04BFF152000F058FFCFE7002372
:100AC00000932D4B1A6C42F000721A641B6C03F0F9
:100AD00000730093009BCAE700230293264B1A6C15
:100AE00042F080621A641B6C03F080630293029BE5
:100AF000204A136801331360012B29D00024049489
:100B00001D4B1A6B42F002021A631B6B03F00203C7
:100B10000493049B4FF4405305930223069303234D
:100B200008930923099305A9154800F06FFF224691
:100B300005213F2000F00AFF3F2000F017FF22466A
:100B40000521412000F002FF412000F00FFF86E761
:100B500000230393084B1A6C42F000721A641B6C5A
:100B600003F000730393039BC8E700BF00640040D9
:100B7000006800408C05002000380240000C024054
:100B80000004024008B503F07FFE012001F0BBFF26
:100B9000F9E708B504F038F8012001F0B4FFF9E7EF
:100BA00008B503F03DFF012001F0ADFFF9E70000BB
:100BB00008B50B4A00210B4801F046FF0A4B1860AC
:100BC0000A4A00210A4801F03FFF0A4B18600A4A0E
:100BD00000210A4801F038FF094B186008BD00BF2A
:100BE000A8540008850B0008E8050020845400087C
:100BF000930B0008E405002060540008A10B0008D6
:100C0000E005002084B000220092154B196B41F0E2
:100C100001011963196B01F0010100910099019222
:100C2000196B41F002011963196B01F00201019186
:100C300001990292196B41F008011963196B01F0D7
:100C400008010291029903921A6B42F080021A6322
:100C50001B6B03F080030393039B04B0704700BF3A
:100C60000038024010B504460A490B4803F069FEFB
:100C70000A4B9C4200D010BD1C46752206491846FE
:100C800001F074FEE36B1A68136823F00803136025
:100C9000F1E700BFB0550020B05300203806002017
:100CA00008B50268034B9A4200D008BD00F0F0F985
:100CB000FBE700BF0004004072B6FEE700B595B048
:100CC0003022002108A804F0FFF8002303930493C6
:100CD0000593069307930193204A116C41F08051CC
:100CE0001164126C02F080520192019A02931C4B23
:100CF0001A6842F440421A601B6803F440430293AE
:100D0000029B012308934FF48033099302230E932F
:100D10004FF480020F9206221092A8221192129391
:100D20000423139308A800F075FF98B90F230393C9
:100D300002230493002305934FF4A05306934FF42A
:100D400080530793052103A801F0B4F920B915B029
:100D50005DF804FBFFF7B0FFFFF7AEFF003802407D
:100D60000070004008B500F079F9FFF7A7FFFFF722
:100D700049FFFFF725FEFFF743FE00F0DDF803F023
:100D800053FE03F06FFE03F01FFE01F02FFEFFF78E
:100D90000FFF01F03DFEFEE700B583B00022009298
:100DA0000D4B596C41F480415964596C01F48041F8
:100DB000009100990192196C41F0805119641B6CEB
:100DC00003F080530193019B0F216FF0010000F0AD
:100DD000BDFD03B05DF804FB0038024030B589B0BA
:100DE000044600230193214B1A6C42F002021A645C
:100DF0001B6C03F002030193019B02A903A801F0FD
:100E00002FFA069BCBB901F00BFA0346184AA2FB56
:100E100003239B0C013B1748174A026040F2E7325C
:100E2000C2604360002303618360836101F09CFB27
:100E3000054630B1284609B030BD01F0F1F9430054
:100E4000E4E70C4801F02CFA05460028F2D11D20F9
:100E500000F08CFD0F2C01D90125EBE70022214683
:100E60001D2000F073FD054B1C60E3E700380240D5
:100E700083DE1B43EC050020000400400800002036
:100E8000FEE7FEE7FEE7FEE7FEE7704708B502482B
:100E900000F0E0FB08BD00BFB805002008B502481F
:100EA00000F0D8FB08BD00BFB805002008B5024817
:100EB00001F03EFA08BD00BFEC05002008B502486D
:100EC00000F0C8FB08BD00BF9005002008B502482F
:100ED00000F0C0FB08BD00BF9005002010B5034620
:100EE0000C4A0D490D48006840B10C4800680344A5
:100EF000521A934206D8094A136010BD0748084C9D
:100F00000460F2E704F068F80C2303604FF0FF3050
:100F1000F3E700BF000003200004000034060020B7
:100F200058590020034AD2F8883043F47003C2F8BD
:100F30008830704700ED00E008B50A480A4B0360AE
:100F40004FF4E133436000238360C36003610C22EC
:100F500042618361C36101F0FBFB00B908BDFFF78B
:100F6000ABFEFBE73806002000100140F0B589B069
:100F7000002303930493059306930793026803F1F8
:100F8000804303F588339A4201D009B0F0BD0024B4
:100F9000009403F594335A6C42F010025A645A6C70
:100FA00002F010020092009A01941A6B42F00202C1
:100FB0001A631A6B02F002020192019A02941A6BF0
:100FC00042F001021A631B6B03F001030293029BC0
:100FD0008023039302270497032606960725079587
:100FE00003A9074800F012FD4FF400730393049720
:100FF00005940696079503A9024800F007FDC4E78B
:101000000004024000000240DFF834D0FFF78AFFFE
:101010000C480D490D4A002302E0D458C450043353
:10102000C4188C42F9D30A4A0A4C002301E0136029
:101030000432A242FBD303F0D5FFFFF793FE7047C3
:10104000000003200000002070050020F854000874
:101050007005002054590020FEE7000008B50B4B36
:101060001A6842F400721A601A6842F480621A60C8
:101070001A6842F480721A60032000F055FC0F20B9
:10108000FFF7ACFEFFF788FE002008BD003C0240E1
:10109000034A1168034B1B780B441360704700BF71
:1010A0008006002004000020014B1868704700BF34
:1010B00080060020002800F0A18038B5044690F892
:1010C0002030D3B12268136843F001031360FFF7A7
:1010D000EBFF054623685A6812F0010F10D1FFF7A5
:1010E000E3FF401B0A28F5D9636A43F400336362C7
:1010F000052384F82030012038BDFFF7A1FCE1E78B
:101100001A6822F002021A60FFF7CEFF0546236834
:101110005A6812F0020F0DD0FFF7C6FF401B0A28D5
:10112000F5D9636A43F400336362052384F8203001
:101130000120E1E7227E012A3DD01A6822F08002D8
:101140001A60637E012B3BD02268136823F04003B2
:101150001360A37E012B39D02268136823F020038B
:101160001360E37E012B37D02268136843F010032D
:101170001360237F012B35D02268136823F0080306
:101180001360637F012B33D02268136823F00403BC
:101190001360A368E268134322691343626913432F
:1011A0006268013A21681343CB6100206062012329
:1011B00084F82030A0E71A6842F080021A60C0E785
:1011C0002268136843F040031360C2E72268136883
:1011D00043F020031360C4E72268136823F0100370
:1011E0001360C6E72268136843F008031360C8E77A
:1011F0002268136843F004031360CAE701207047B4
:1012000090F82030013BDBB2012B05D9436A43F44F
:10121000802343620120704730B5464BD3F800224B
:1012200042F00102C3F80022D3F8002222F47C52DB
:10123000C3F80022D3F80022486A42EA0022C3F829
:1012400000224A6902F01F02012000FA02F2D3F8DC
:101250001C026FEA020C20EA0200C3F81C02CB69F0
:10126000C3B9344BD3F80C020CEA0000C3F80C02EB
:101270008C884869CD6844EA0544483043F83040DA
:101280008C68088840EA04404C6904F1480E03EB7E
:10129000CE035860CB69012B1ED08B69002B33D154
:1012A0002448D0F804320CEA0303C0F804320B6976
:1012B0008BBB2048D0F814320CEA0303C0F8143278
:1012C0000B6A012B2ED01B4AD2F8003223F0010307
:1012D000C2F80032002030BD164BD3F80C02104388
:1012E000C3F80C028C8848690D6844EA054448300C
:1012F00043F8304088894C698D6840EA054048349D
:1013000003EBC4035860C8E70A48D0F8043213431B
:10131000C0F80432CBE70748D0F814321343C0F8C2
:101320001432CDE70349D1F81C321343C1F81C3203
:10133000C9E700BF0064004070B5044690F8205033
:10134000EDB2012D06D0436A43F400234362012528
:10135000284670BD022380F820300268136823F00D
:1013600001031360FFF7A0FE064623685B6813F0D5
:10137000010F0CD0FFF798FE831B0A2BF5D9636A87
:1013800043F400336362052384F82030E0E700254E
:101390006562DDE730B590F820C00468A4680CF100
:1013A000FF3C5FFA8CFCBCF1010F62D814F0E05FE7
:1013B00059D0C4F3016C012404FA0CF41C608B684E
:1013C000002B3DD10D68CB68046843EA45550CF10C
:1013D00018031B01E55003680C690CF1180E03EBB0
:1013E0000E135C600B7D012B35D0D17993791B04F2
:1013F00043EA0163517943EA0123147901682343E5
:1014000001EB0C11C1F88C31D17893781B0443EABD
:101410000163517843EA0123117802680B4302EB20
:101420000C12C2F8883102680CF1180C4FEA0C1C3F
:1014300052F80C3043F0010342F80C3000201DE05C
:101440004C6843EAC403CC6823430CF1180424011C
:1014500005682B51BFE7036803EB0E13596841F48D
:1014600080715960C1E7436A43F40013436201206D
:1014700004E0436A43F480234362012030BD90F8C6
:101480002030013BDBB2012B01D9002070470368FB
:10149000986810F0806000D001209A6812F0006F08
:1014A00000D001309B6813F0805FEFD001307047AF
:1014B00090F820C00CF1FF3C5FFA8CFCBCF1010FEE
:1014C00000F2A58030B451B90468E46814F0030F49
:1014D00010D1436A43F40013436201207EE00468A4
:1014E000246914F0030F05D1436A43F400134362E7
:1014F000012073E0056801F11B0424012C5904F05C
:1015000004049460002C6BD1056801F11B042401D4
:101510002C59640D1460046801F11B0C4FEA0C1C7B
:1015200054F80C4004F00204D4600468A444DCF8CD
:10153000045015F0080F5BD008241461046801F111
:101540001B0C04EB0C146468C4F307249461046856
:1015500004EB0C146468240C5461026802EB011261
:10156000D2F8B8211A70026802EB0112D2F8B82141
:10157000C2F307225A70026802EB0112D2F8B821B6
:10158000C2F307429A70026802EB0112D2F8B82146
:10159000120EDA70026802EB0112D2F8BC211A7145
:1015A000026802EB0112D2F8BC21C2F307225A7181
:1015B000026802EB0112D2F8BC21C2F307429A7111
:1015C000026802EB0112D2F8BC21120EDA71C1B925
:1015D0000268D36843F02003D360002030BC70471A
:1015E000056801F11B0424012C59E408546092E7BA
:1015F00001F11B0504EB0514646804F00F04146189
:101600009CE70268136943F020031361E5E7436A2E
:1016100043F4802343620120704790F82030013B5F
:10162000DBB2012B05D9436A43F4802343620120D6
:101630007047026853690B4353610020704770473D
:1016400070477047704770477047704770477047E2
:10165000704770472DE9F84F054603685C69D3F879
:1016600004809F68D3F80CA0D3F81090D3F818B07A
:1016700014F001063BD017F0010616D001229A6043
:1016800017F0020F08D117F0040F0CD117F008065D
:1016900006D04FF4805608E0FFF7D1FF002604E0A3
:1016A000FFF7D0FF01E04FF4006617F4807F0DD004
:1016B0002B684FF480729A6017F4007F40F0968098
:1016C00017F4806F00F0968046F4005617F4803FC0
:1016D0000DD02B684FF480329A6017F4003F40F031
:1016E000938017F4802F00F0938046F4004614F0A6
:1016F000080F07D01AF0100F04D046F400762B68BC
:101700001022DA6014F0040F03D01AF0080F40F032
:10171000898014F0020F05D02B68DB6813F0030FEB
:1017200040F0878014F0400F07D019F0100F04D05C
:1017300046F480662B6810221A6114F0200F02D044
:1017400019F0080F79D114F0100F04D02B681B6921
:1017500013F0030F78D114F4003F02D018F0100FEB
:1017600076D114F4803F02D018F0080F77D114F42A
:10177000004F37D018F0040F31D014F4807F04D01C
:101780001BF0010F01D046F0010614F4007F04D0D5
:101790001BF0020F01D046F0020614F4806F04D053
:1017A0001BF0040F01D046F0040614F4006F16D0AD
:1017B0001BF0700B13D0BBF1400F66D056D8BBF1B5
:1017C000200F5CD0BBF1300F5CD0BBF1100F01D10A
:1017D00046F008062A68936923F0700393612B682A
:1017E00004225A60002E56D1BDE8F88F2846FFF734
:1017F00027FF6BE717F4006F02D046F4804665E7D9
:101800002846FFF720FF61E72846FFF71AFF6EE73B
:1018100017F4002F02D046F4803668E72846FFF719
:1018200013FF64E72B680822DA602846FFF70DFFF4
:101830006FE7284603F062F974E72B6808221A6103
:101840002846FFF703FF7EE7284603F093F982E777
:101850002B6810225A602846FFF7F9FE81E72B68B3
:1018600008225A602846FFF7F3FE80E7BBF1500FCD
:101870000ED0BBF1600FADD146F48076AAE746F0FA
:101880001006A7E746F02006A4E746F04006A1E7C9
:1018900046F080069EE76B6A33436B622846FFF78B
:1018A000D8FEA1E7002807DB00F01F024009012352
:1018B0009340024A42F82030704700BF00E100E048
:1018C000002808DB0901C9B200F1604000F5614061
:1018D00080F80013704700F00F000901C9B2014BF6
:1018E0001954704714ED00E000B500F00700C0F196
:1018F000070CBCF1040F28BF4FF0040C031D062B8E
:101900000FD9C31E4FF0FF3E0EFA0CF021EA000182
:1019100099400EFA03FE22EA0E0241EA02005DF847
:1019200004FB0023EEE70000074AD36823F4E063DA
:101930001B041B0C000200F4E060034343F0BF6390
:1019400043F40033D360704700ED00E010B5044667
:10195000054BD868C0F30220FFF7C6FF01462046BA
:10196000FFF7AEFF10BD00BF00ED00E008B5FFF7C8
:1019700099FF08BD30B405682C6824F480242C60DD
:10198000046863608368402B05D00368996003682E
:10199000DA6030BC704703689A600368D960F8E782
:1019A00038B50446856D90F8340001282BD001200D
:1019B00084F8340094F83500C0B2012804D0002324
:1019C00084F83430022038BD022084F8350000202D
:1019D00060652046FFF7CEFFE26D3F239340AB608A
:1019E0002268136843F016031360236C23B1226846
:1019F000136843F0080313602268136843F001037F
:101A000013600020DFE70220DDE7000000230F2B3A
:101A100000F2F68070B582B066E085684FEA430E4A
:101A2000032404FA0EF425EA0405CC6804FA0EF443
:101A30002C438460446824EA02044A68C2F300121A
:101A40009A40224342605DE0DC08083450F82420CC
:101A500003F00705AD004FF00F0E0EFA05FE22EA67
:101A60000E0E0A69AA4042EA0E0240F824205DE008
:101A7000092200E0002202FA0EF22A430234614DEC
:101A800045F82420604A94686FEA0C0224EA0C05A9
:101A90004E6816F4801F01D04CEA04055A4CA5602C
:101AA000E46802EA04054E6816F4001F01D04CEA0F
:101AB0000405554CE560646802EA04054E6816F4B6
:101AC000003F01D04CEA04054F4C65602468224079
:101AD0004D6815F4803F01D04CEA04024A4C226064
:101AE00001330F2B00F28A8001229A400C6804EA2D
:101AF000020C32EA0404F3D14C6804F00304013C04
:101B0000012C8AD94A6802F00302032A09D0C4686A
:101B10005D000322AA4024EA02048A68AA40224304
:101B2000C2604A6802F00302022A8DD004684FEABC
:101B3000430E032202FA0EF224EA02044A6802F07B
:101B4000030202FA0EF2224302604A6812F4403F96
:101B5000C6D0002201922D4A546C44F4804454644F
:101B6000526C02F480420192019A9C08A51C254AFD
:101B700052F8255003F0030E4FEA8E0E0F2202FAA0
:101B80000EF225EA0205224A90423FF473AF02F5B5
:101B90008062904222D002F58062904220D002F50D
:101BA000806290421ED002F5806290421CD002F505
:101BB000806290421AD002F58062904218D002F5FD
:101BC0008062904216D002F58062904214D002F5F5
:101BD000806290423FF44CAF0A224CE701224AE770
:101BE000022248E7032246E7042244E7052242E7AF
:101BF000062240E707223EE708223CE702B070BD1C
:101C0000704700BF00380140003C014000380240EE
:101C100000000240002800F0E08170B582B0044668
:101C2000036813F0010F3BD09F4B9B6803F00C033C
:101C3000042B2CD09C4B9B6803F00C03082B21D069
:101C40006368B3F5803F4FD0B3F5A02F52D0964BC9
:101C50001A6822F480321A601A6822F480221A600C
:101C60006368002B50D0FFF71FFA05468E4B1B68A8
:101C700013F4003F14D1FFF717FA401B6428F5D97D
:101C80000320B1E1884B5B6813F4800FD8D0864BFA
:101C90001B6813F4003F03D06368002B00F09F81A2
:101CA000236813F0020F54D07F4B9B6813F00C0F86
:101CB0003ED07D4B9B6803F00C03082B33D0E368C8
:101CC000002B68D0794B01221A60FFF7EDF9054629
:101CD000754B1B6813F0020F54D1FFF7E5F9401B59
:101CE0000228F5D903207FE16F4A136843F480335B
:101CF0001360B5E76C4B1A6842F480221A601A68C8
:101D000042F480321A60ABE7FFF7CEF90546664B26
:101D10001B6813F4003FC3D0FFF7C6F9401B6428CB
:101D2000F5D9032060E1604B5B6813F4800FC6D1E6
:101D30005D4B1B6813F0020F03D0E368012B40F0EA
:101D40005081594A136823F0F803216943EAC1031B
:101D50001360236813F0080F42D063696BB3534BD1
:101D60000122C3F8802EFFF79FF905464E4B5B6FAB
:101D700013F0020F34D1FFF797F9401B0228F5D971
:101D8000032031E1484A136823F0F803216943EA4C
:101D9000C1031360DDE7454B00221A60FFF784F9A9
:101DA0000546414B1B6813F0020FD2D0FFF77CF9B8
:101DB000401B0228F5D9032016E13C4B0022C3F852
:101DC000802EFFF771F90546374B5B6F13F0020F5A
:101DD00006D0FFF769F9401B0228F5D9032003E17B
:101DE000236813F0040F77D02F4B1B6C13F0805F28
:101DF00033D1002301932C4B1A6C42F080521A64A9
:101E00001B6C03F080530193019B0125284B1B6839
:101E100013F4807F23D0A368012B34D0052B38D056
:101E2000214B1A6F22F001021A671A6F22F0040286
:101E30001A67A368002B3DD0FFF736F906461A4B08
:101E40001B6F13F0020F46D1FFF72EF9801B41F2F2
:101E500088339842F3D90320C6E00025D6E7144A18
:101E6000136843F480731360FFF71EF90646104BA6
:101E70001B6813F4807FCED1FFF716F9801B022870
:101E8000F5D90320B0E0084A136F43F0010313674C
:101E9000CFE7054B1A6F42F004021A671A6F42F03F
:101EA00001021A67C5E700BF003802400000474240
:101EB00000700040FFF7F8F80646524B1B6F13F016
:101EC000020F08D0FFF7F0F8801B41F288339842E8
:101ED000F3D9032088E0EDB9A369002B00F08380DB
:101EE000484A926802F00C02082A51D0022B17D0FF
:101EF000454B00221A66FFF7D7F80446414B1B6892
:101F000013F0007F42D0FFF7CFF8001B0228F5D96D
:101F1000032069E03B4A136C23F080531364DBE732
:101F2000394B00221A66FFF7BFF80546354B1B6890
:101F300013F0007F06D0FFF7B7F8401B0228F5D951
:101F4000032051E0E369226A1343626A43EA821381
:101F5000A26A5208013A43EA0243E26A43EA026390
:101F6000284A5360284B01221A66FFF79DF8044661
:101F7000244B1B6813F0007F06D1FFF795F8001B78
:101F80000228F5D903202FE000202DE000202BE0CF
:101F9000012B2BD01B4B5B6803F48001E26991425B
:101FA00026D103F03F02216A8A4223D1616A47F6B3
:101FB000C0721A40B2EB811F1ED103F44031A26AF5
:101FC0005208013AB1EB024F18D103F07063E26A94
:101FD000B3EB026F14D1002006E00120704701200E
:101FE00002E0012000E0002002B070BD0120FBE70C
:101FF0000120F9E70120F7E70120F5E70120F3E7E9
:102000000120F1E7003802400000474208B5264BA6
:102010009B6803F00C03042B41D0082B41D1224BC9
:102020005A6802F03F025B6813F4800F12D01E4B17
:102030005968C1F388111D480023A1FB0001FEF778
:10204000C5FB194B5B68C3F3014301335B00B0FB75
:10205000F3F008BD144B5868C0F388104FEA401CD9
:10206000BCEB000C6EEB0E0E4FEA8E1343EA9C6342
:102070004FEA8C11B1EB0C0163EB0E03DB0043EA7A
:102080005173C90011EB000C43F1000399020023C6
:102090004FEA8C2041EA9C51FEF798FBD1E70348B8
:1020A000D7E70348D5E700BF00380240001BB70060
:1020B0000024F400002800F09B8070B50D46044613
:1020C0004F4B1B6803F00F038B4208D2CBB24C4A34
:1020D0001370136803F00F038B4240F08B8023686A
:1020E00013F0020F17D013F0040F04D0454A936881
:1020F00043F4E0539360236813F0080F04D0414A7F
:10210000936843F4604393603E4A936823F0F0037E
:10211000A1680B439360236813F0010F32D063680A
:10212000012B21D09A1E012A25D9364A126812F0B5
:10213000020F61D033498A6822F0030213438B6097
:10214000FEF7B2FF06462F4B9B6803F00C03626854
:10215000B3EB820F16D0FEF7A7FF801B41F2883346
:102160009842F0D9032042E0264A126812F4003F58
:10217000E0D101203BE0234A126812F0007FD9D160
:10218000012034E01E4B1B6803F00F03AB4207D95C
:10219000EAB21B4B1A701B6803F00F03AB422DD140
:1021A000236813F0040F06D0164A936823F4E05313
:1021B000E1680B439360236813F0080F07D0114ABE
:1021C000936823F46043216943EAC1039360FFF7F6
:1021D0001DFF0C4B9B68C3F303130B4AD35CD84021
:1021E0000A4B18600A4B1868FEF7F8FD002070BD16
:1021F000012070470120FAE70120F8E70120F6E707
:10220000003C024000380240D45400080000002086
:1022100008000020014B1868704700BF0000002034
:1022200008B5FFF7F7FF044B9B68C3F38223034A0B
:10223000D35CD84008BD00BF00380240CC54000831
:1022400008B5FFF7E7FF044B9B68C3F34233034A2B
:10225000D35CD84008BD00BF00380240CC54000811
:102260000F2303600B4B9A6802F0030242609A68E6
:1022700002F0F00282609A6802F4E052C2609B6849
:10228000DB0803F4E0530361034B1B6803F00F0307
:102290000B60704700380240003C0240704700006D
:1022A00090F83D30DBB2012B37D1022380F83D306E
:1022B0000268D36843F00103D3600368194A93426C
:1022C00020D0B3F1804F1DD0A2F57C42934219D0AB
:1022D00002F58062934215D002F58062934211D0DC
:1022E00002F5784293420DD002F57052934209D024
:1022F000A2F59432934205D01A6842F001021A60A6
:10230000002070479A6802F00702062A07D01A6870
:1023100042F001021A60002070470120704700203F
:10232000704700BF0000014070477047704770471A
:1023300070B504460368DE681D6915F0020F10D001
:1023400016F0020F0DD06FF002021A61012303771D
:1023500003689B6913F0030F5ED0FFF7E6FF0023CD
:10236000237715F0040F12D016F0040F0FD0236856
:102370006FF004021A610223237723689B6913F428
:10238000407F4FD02046FFF7D0FF0023237715F082
:10239000080F12D016F0080F0FD023686FF0080254
:1023A0001A61042323772368DB6913F0030F40D0FD
:1023B0002046FFF7BAFF0023237715F0100F12D045
:1023C00016F0100F0FD023686FF010021A61082367
:1023D00023772368DB6913F4407F31D02046FFF771
:1023E000A4FF0023237715F0010F02D016F0010F90
:1023F0002DD115F0800F02D016F0800F2FD115F0DF
:10240000400F02D016F0400F31D115F0200F02D04E
:1024100016F0200F33D170BDFFF786FF2046FFF77F
:1024200085FF9CE72046FFF77FFF2046FFF77EFFF2
:10243000ABE72046FFF778FF2046FFF777FFBAE7C4
:102440002046FFF771FF2046FFF770FFC9E72368BA
:102450006FF001021A612046FEF722FCC9E72368EB
:102460006FF080021A61204600F0ABF8C7E72368DE
:102470006FF040021A612046FFF759FFC5E7236855
:102480006FF020021A61204600F09AF8C3E70000BE
:102490000368344A904212D0B0F1804F0FD0A2F5B9
:1024A0007C4290420BD002F58062904207D002F548
:1024B0008062904203D002F57842904203D123F02B
:1024C00070034A681343274A90422AD0B0F1804FE4
:1024D00027D0A2F57C42904223D002F58062904240
:1024E0001FD002F5806290421BD002F578429042E4
:1024F00017D002F57052904213D002F580629042DC
:102500000FD002F5806290420BD0A2F59832904233
:1025100007D002F58062904203D002F580629042BB
:1025200003D123F44073CA68134323F080034A693C
:10253000134303608B68C3620B688362094B984244
:1025400003D003F58063984201D10B690363012333
:102550004361036913F0010F03D0036923F0010302
:10256000036170470000014040B310B5044690F885
:102570003D30F3B1022384F83D30214651F8040B7D
:10258000FFF786FF012384F8463084F83E3084F854
:102590003F3084F8403084F8413084F8423084F889
:1025A000433084F8443084F8453084F83D300020CE
:1025B00010BD80F83C30FFF771FEDBE7012070476B
:1025C00070477047026802F10C0353E8003F23F0A4
:1025D000C0030C3242E800310029F3D1202380F8F7
:1025E00041307047026802F10C0353E8003F23F4C6
:1025F00090730C3242E800310029F3D1026802F1F5
:10260000140353E8003F23F00103143242E8003181
:102610000029F3D1036B012B05D0202380F8423031
:10262000002303637047026802F10C0353E8003F84
:1026300023F010030C3242E800310029F3D1ECE71B
:1026400010B504460268136923F44053C1680B4374
:102650001361836802691A4343691A43C3691A43C1
:102660000168CB6823F4164323F00C031343CB60BB
:102670000268536923F4407381690B435361036813
:10268000314A934206D002F58062934202D0FFF7AE
:10269000C7FD01E0FFF7D4FDE369B3F5004F29D092
:1026A0000021031849411B1841F10001C90041EA0A
:1026B0005371DB00181863684FEA83024FEA937383
:1026C00041F10001FEF782F8204AA2FB00314909DE
:1026D000642303FB11031B013233A2FB03235B09B9
:1026E00003F0F00202EB011203F00F032168134420
:1026F0008B6010BD0023021843EB0301121841F157
:102700000001C90041EA5271D200101841F10001E4
:10271000626892185B41FEF759F80C4AA2FB00313F
:102720004909642303FB1103DB003233A2FB0323BB
:102730005B095A0002F4F87202EB011203F007037E
:10274000216813448B60D4E7001001401F85EB51D2
:1027500060B310B5044690F8413013B3242384F8D5
:1027600041302268D36823F40053D3602046FFF73A
:1027700067FF2268136923F4904313612268536949
:1027800023F02A0353612268D36843F40053D360D3
:1027900000206064202384F8413084F84230606374
:1027A00010BD80F84030FEF7E1FBD7E7012070470D
:1027B00070477047704710B5846B23685A6994F866
:1027C0004130DBB2212B10D023685A6902F040025D
:1027D00094F84230DBB2222B11D0636C43F010032B
:1027E00063642046FFF7E6FF10BD02F08002002A76
:1027F000EAD00023E3842046FFF7E4FEE4E7002A62
:10280000EBD00023E3852046FFF7ECFEE5E708B5B3
:10281000806B01234363036B012B02D0FFF7C9FFD9
:1028200008BD818D4908FEF71DFAF9E708B5034692
:10283000806B1B681B6813F4807F2BD10023C3853A
:10284000026802F10C0353E8003F23F480730C325A
:1028500042E800310029F3D1026802F1140353E881
:10286000003F23F00103143242E800310029F3D184
:10287000026802F1140353E8003F23F040031432CE
:1028800042E800310029F3D1202380F84230036B65
:10289000012B07D000234363036B012B0FD0FFF7FD
:1028A00087FF08BD026802F10C0353E8003F23F0E4
:1028B00010030C3242E800310029F3D1EAE7818DA0
:1028C000FEF7D0F9EDE7000030B583B004461346BB
:1028D0008162828500254564222280F84220C26BF5
:1028E0001F48D063E26B1F481064E26B1E48D0643F
:1028F000E26B156520680A46011DE06BFFF750F892
:10290000019523681A6801925B680193019B236912
:102910005BB1226802F10C0353E8003F43F480737B
:102920000C3242E800310029F3D1226802F114038D
:1029300053E8003F43F00103143242E8003100291C
:10294000F3D1226802F1140353E8003F43F040033F
:10295000143242E800310029F3D1002003B030BD29
:102960002D2800080F280008B727000890F84230EB
:10297000DBB2202B29D110B582B0044639B312B98D
:10298000012002B010BD0123036300234363FFF75E
:102990009BFF0028F5D1236B012B01D00120F0E72C
:1029A0000023019323681A6801925B680193019BDD
:1029B000226802F10C0353E8003F43F010030C328D
:1029C00042E800310029F3D1DBE702207047012003
:1029D000D7E708B54FF0E0231B6901F015FC01288B
:1029E00000D108BD00F0D6F9FBE70000EFF3058346
:1029F0002BB9064B186828B901221A6070476FF08E
:102A0000050070474FF0FF30704700BFC80F00202F
:102A1000EFF3058373B90A4B1B68012B0DD110B579
:102A20000024084BDC77064B02221A6001F03AF9C9
:102A3000204610BD6FF0050070474FF0FF30704723
:102A4000C80F002000ED00E0F0B587B00024059429
:102A5000EFF305847CBB70B32AB31568936903B99F
:102A600018235C1E372C4AD8546814F0010F48D143
:102A7000566976B14FEA960C946834B1D768B7F5C9
:102A8000D07F02D3176907B1C6B92CB14FF0FF341C
:102A90000EE04FF0800CEFE7D4688CB9146994B164
:102AA0004FF0FF3404E01546002418234FF0800C4B
:102AB000012C0AD0ACB1059807B0F0BD0124F7E7AE
:102AC0004FF0FF34F4E70024F2E7146992680292B1
:102AD000019400930B466246294601F073F8059075
:102AE000E9E705AA019200930B461FFA8CF22946EA
:102AF00001F0A5F80128DED000230593DBE70020D4
:102B0000DAE70020D8E708B5EFF3058333B908B951
:102B1000002008BD01F032FA0020FAE76FF005004E
:102B2000F7E70000034B0360034B0B608023136047
:102B3000704700BF280E0020280C0020034B0360C4
:102B4000034B0B604FF4807313607047880A0020BA
:102B50008406002000F1080343604FF0FF328260DA
:102B6000C360036100230360704700230361704763
:102B700043684B609A688A60516099600861036895
:102B800001330360704730B40D68B5F1FF3F11D0D9
:102B900000F108031C465B681A68AA42FAD9636808
:102BA0004B6099608C606160086103680133036069
:102BB00030BC70470469F2E70369416882688A6043
:102BC000416851605A68824206D0002202611A6848
:102BD000013A1A601868704782685A60F5E7000089
:102BE00082B0002301930D4B1B68B3F1FF3F08D067
:102BF0004FF0500383F31188BFF36F8FBFF34F8FF4
:102C0000FEE74FF0500383F31188BFF36F8FBFF3DC
:102C10004F8F019B002BFCD002B070470C000020AE
:102C200008480068006880F308884FF0000080F3CF
:102C3000148862B661B6BFF34F8FBFF36F8F00DFAA
:102C400000BF000008ED00E0DFF80C00016841F46F
:102C5000700101607047000088ED00E04FF0807364
:102C600040F8043C21F0010140F8081C054B40F8F5
:102C70000C3C40F8202C6FF0020340F8243C443810
:102C8000704700BFE12B00080000000000000000BA
:102C9000074B19680868B0E8F04F80F30988BFF364
:102CA0006F8F4FF0000080F311887047AFF3008002
:102CB000305100204FF0500383F31188BFF36F8F22
:102CC000BFF34F8F0B4A136801331360012B00D001
:102CD00070474FF0E023D3F8043D13F0FF0FF7D017
:102CE0004FF0500383F31188BFF36F8FBFF34F8F03
:102CF000FEE700BF0C000020094B1B6843B94FF0F2
:102D0000500383F31188BFF36F8FBFF34F8FFEE73C
:102D1000013B034A13600BB983F31188704700BF6E
:102D20000C00002000000000000000000000000077
:102D3000EFF30980BFF36F8F154B1A681EF0100F69
:102D400008BF20ED108A20E9F04F10602DE909003E
:102D50004FF0500080F31188BFF34F8FBFF36F8F98
:102D600001F032F94FF0000080F3118809BC1968B6
:102D70000868B0E8F04F1EF0100F08BFB0EC108AE2
:102D800080F30988BFF36F8F704700BFAFF30080F7
:102D90003051002008B54FF0500383F31188BFF382
:102DA0006F8FBFF34F8F00F0E1FF28B14FF0E023AA
:102DB0004FF08052C3F8042D002383F3118808BD1F
:102DC0004FF0E022002313619361054B1B68054916
:102DD000A1FB03139B09013B536107231361704758
:102DE00000000020D34D62104FF0E023D3F8002DF7
:102DF0003D4B9A421CD04FF0E023D3F8002D3B4BC3
:102E00009A421ED030B583B0394B1A78D2B20192B3
:102E1000FF221A701B78DBB28DF803309DF8033067
:102E200003F05003334A1370334B07221A601BE040
:102E30004FF0500383F31188BFF36F8FBFF34F8FB1
:102E4000FEE74FF0500383F31188BFF36F8FBFF39A
:102E50004F8FFEE7284A1368013B13609DF803304B
:102E60005B00DBB28DF803309DF8033013F0800F68
:102E7000F0D1214B1B68032B08D04FF0500383F394
:102E80001188BFF36F8FBFF34F8FFEE71B021A4A03
:102E9000136003F4E0631360019BDBB2144A137008
:102EA0004FF0E024D4F8203D43F47003C4F8203DF3
:102EB000D4F8203D43F07043C4F8203DFFF780FF75
:102EC00000250E4B1D60FFF7BFFED4F8343F43F0E2
:102ED0004043C4F8343FFFF7A3FE01F075F8FFF755
:102EE0007FFE284603B030BD71C20F4170C20F4152
:102EF00000E400E0D00F0020CC0F00200C000020E8
:102F0000EFF305830F2B0FD9114A9B5CDBB2114AFB
:102F100012789A4208D94FF0500383F31188BFF317
:102F20006F8FBFF34F8FFEE74FF0E023D3F80C3DD8
:102F300003F4E063084A1268934208D94FF0500343
:102F400083F31188BFF36F8FBFF34F8FFEE7704796
:102F5000F0E300E0D00F0020CC0F0020124A12F066
:102F6000070F1ED0D11D21F00701C1F57053134486
:102F70000A460E480260002141601344083B23F0DA
:102F800007030B48036059601960991A5160136078
:102F9000084B1960084B1960084B4FF000421A604B
:102FA00070474FF47053E4E7F40F0020EC0F00205B
:102FB000E80F0020E00F0020E40F0020D40F0020D5
:102FC000164B1A461B688342FBD3516802EB010C77
:102FD000844509D0416800EB010C634509D00360CA
:102FE000904219D01060704740680144516010460B
:102FF000F0E710B40A4C2468A3420BD05B68194474
:10300000416013681B680360904200D010605DF857
:10301000044B70470460F7E7704700BFEC0F0020D7
:10302000E80F002038B5044600F092FE384B1B68CC
:10303000B3B1384B1B681C4250D1002C50D004F166
:10304000080214F0070F02D022F007020832002A0B
:1030500055D0314B1B68934253D330490C6804E080
:10306000FFF77CFFE5E721461C466368934202D2E6
:103070002368002BF7D1264B1B68A34243D00D6871
:10308000083523680B6063689B1A102B10D9A018B1
:1030900010F0070F08D04FF0500383F31188BFF3EF
:1030A0006F8FBFF34F8FFEE743606260FFF788FFCB
:1030B000626819490B689B1A0B60194909688B42B1
:1030C00001D217490B60134B1B6813436360002345
:1030D0002360144A13680133136002E0002500E006
:1030E000002500F0CFFE15F0070F0ED04FF0500373
:1030F00083F31188BFF36F8FBFF34F8FFEE7002577
:10310000EFE70025EDE70025EBE7284638BD00BFD7
:10311000E80F0020D40F0020E40F0020EC0F002067
:10312000E00F0020DC0F0020002834D038B5044622
:10313000A0F1080550F8043C174A1268134208D160
:103140004FF0500383F31188BFF36F8FBFF34F8F9E
:10315000FEE750F8081C41B14FF0500383F311888B
:10316000BFF36F8FBFF34F8FFEE723EA020340F8F0
:10317000043C00F0EDFD54F8041C084A13680B44AD
:1031800013602846FFF71CFF054A136801331360DC
:1031900000F078FE38BD7047D40F0020E40F002007
:1031A000D80F002010B50446FFF784FDA26BE36B37
:1031B0009A4204D00024FFF79FFD204610BD012451
:1031C000F9E710B50446FFF775FDA36B23B9012499
:1031D000FFF792FD204610BD0024F9E770B50446C4
:1031E0001546866B026C5AB903681BB10020013684
:1031F000A66370BD806801F017F80023A360F6E7AE
:103200006DB94068FDF7FCFA6368226C1344636093
:10321000A268934219D3236863602846E7E7C06831
:10322000FDF7EEFAE368226C51429B1AE3602268D4
:10323000934202D2A3680B44E360022D01D0002028
:10324000D5E726B1013E0020D1E72846CFE7002090
:10325000CDE70346026C6AB110B50846D96811443F
:10326000D9609C68A14201D31968D960D968FDF77B
:10327000C7FA10BD704738B50546FFF71BFD95F836
:10328000454064B201E0013C64B2002C0ADD6B6A87
:1032900043B105F1240000F01DFF0028F3D000F039
:1032A000ADFFF0E7FF2385F84530FFF725FDFFF779
:1032B00001FD95F8444064B201E0013C64B2002C89
:1032C0000ADD2B6943B105F1100000F003FF00286F
:1032D000F3D000F093FFF0E7FF2385F84430FFF7C9
:1032E0000BFD38BD38B5E0B10D460446FFF7E2FCF2
:1032F0002368E26B216C01FB0230A0600020A06318
:103300006360013A02FB0133E360FF2384F8443039
:1033100084F84530FDB9236963B9FFF7EDFC01205E
:1033200038BD4FF0500383F31188BFF36F8FBFF3A5
:103330004F8FFEE704F1100000F0CCFE0028ECD027
:103340004FF0E0234FF08052C3F8042DBFF34F8FAE
:10335000BFF36F8FE1E704F11000FFF7FBFB04F10F
:103360002400FFF7F7FBD8E738B51D46049C0B4651
:1033700049B92460E063236401212046FFF7B2FFCE
:1033800084F84C5038BD2260F4E740B94FF0500348
:1033900083F31188BFF36F8FBFF34F8FFEE710B534
:1033A00084B01C46844653B192B189B94FF05003A2
:1033B00083F31188BFF36F8FBFF34F8FFEE74FF09A
:1033C000500383F31188BFF36F8FBFF34F8FFEE776
:1033D0006AB150230393039B502B13D04FF050033B
:1033E00083F31188BFF36F8FBFF34F8FFEE7002980
:1033F000EFD04FF0500383F31188BFF36F8FBFF30B
:103400004F8FFEE7039B012384F8463000949DF81C
:1034100018306046FFF7A8FF204604B010BDF0B595
:1034200085B0019288B10F461D460446B1B1022D08
:1034300020D1E36B012B1DD04FF0500383F3118893
:10344000BFF36F8FBFF34F8FFEE74FF0500383F34F
:103450001188BFF36F8FBFF34F8FFEE7036C002B14
:10346000E5D04FF0500383F31188BFF36F8FBFF3A4
:103470004F8FFEE700F0C8FE064658B9019B002BAF
:1034800048D04FF0500383F31188BFF36F8FBFF321
:103490004F8FFEE700263DE02A4639462046FFF7DB
:1034A0009DFE636A7BB948B14FF0E0234FF0805234
:1034B000C3F8042DBFF34F8FBFF36F8FFFF71CFCD2
:1034C000012005B0F0BD04F1240000F003FE002847
:1034D000F4D04FF0E0234FF08052C3F8042DBFF337
:1034E0004F8FBFF36F8FE9E7FFF706FC0020E8E797
:1034F00002A800F035FE012619E0002384F84430CC
:1035000021E0002384F8453023E02046FFF7B3FE96
:1035100000F0B8FCFFF7CEFBA26BE36B9A42BBD383
:10352000022DB9D0019B002BDED0002EE0D0FFF79A
:10353000E3FB00F00DFCFFF7BDFB94F8442052B212
:10354000B2F1FF3FD9D094F8452052B2B2F1FF3F1B
:10355000D7D0FFF7D1FB01A902A800F00DFED8B922
:103560002046FFF71FFE0028CFD0019904F110007C
:1035700000F07CFD2046FFF77EFE00F083FC002873
:10358000C8D14FF0E0234FF08052C3F8042DBFF3B1
:103590004F8FBFF36F8FBDE72046FFF76CFE00F043
:1035A00071FC00208DE72DE9F84390B10F461646D7
:1035B0001C460546B1B1022C20D1EB6B012B1DD06E
:1035C0004FF0500383F31188BFF36F8FBFF34F8F1A
:1035D000FEE74FF0500383F31188BFF36F8FBFF303
:1035E0004F8FFEE7036C002BE5D04FF0500383F3C1
:1035F0001188BFF36F8FBFF34F8FFEE7FFF780FC9B
:10360000EFF311884FF0500383F31188BFF36F8FEE
:10361000BFF34F8FAA6BEB6B9A4206D3022C04D0F8
:10362000002088F31188BDE8F88395F845904FFA9B
:1036300089F9AB6B224639462846FFF7CFFDB9F131
:10364000FF3F06D009F101035BB285F84530012048
:10365000E7E76B6A0BB90120E3E705F1240000F00E
:1036600039FD18B126B101203060DAE70120D8E732
:103670000120D6E7F0B585B0019290B10F4604461F
:10368000C1B100F0C1FD064600BB019B002B5ED01E
:103690004FF0500383F31188BFF36F8FBFF34F8F49
:1036A000FEE74FF0500383F31188BFF36F8FBFF332
:1036B0004F8FFEE7036C002BE3D04FF0500383F3F2
:1036C0001188BFF36F8FBFF34F8FFEE700263EE0F8
:1036D00039462046FFF7BDFD013DA563236923B9A7
:1036E000FFF70AFB012005B0F0BD04F1100000F067
:1036F000F1FC0028F4D04FF0E0234FF08052C3F8E3
:10370000042DBFF34F8FBFF36F8FE9E7FFF7F4FA94
:103710000020E8E702A800F023FD012621E00023B5
:1037200084F8443029E0002384F845302BE020461B
:10373000FFF7A1FD00F0A6FB09E02046FFF79BFD87
:1037400000F0A0FB2046FFF73CFD00283FD1FFF72B
:10375000B1FAA56B002DBBD1019B002BD6D0002E5A
:10376000D8D0FFF7C9FA00F0F3FAFFF7A3FA94F8FC
:1037700044305BB2B3F1FF3FD1D094F845305BB237
:10378000B3F1FF3FCFD0FFF7B7FA01A902A800F0CD
:10379000F3FC0028D1D12046FFF713FD0028C6D046
:1037A000019904F1240000F061FC2046FFF763FD5D
:1037B00000F068FB0028CAD14FF0E0234FF08052A0
:1037C000C3F8042DBFF34F8FBFF36F8FBFE7002007
:1037D00089E700000023072B0CD8074A52F8332052
:1037E0000AB10133F7E7044A42F8331002EBC3028F
:1037F00050607047704700BFF44B002070B504461E
:103800000D461646FFF756FA94F844305BB2B3F112
:10381000FF3F0DD094F845305BB2B3F1FF3F0BD0C2
:10382000FFF76AFAA36B5BB12046FFF724FD70BD7A
:10383000002384F84430EDE7002384F84530EFE7B7
:103840003246294604F1240000F028FCECE7000091
:10385000084B1B681B6823B9074B4FF0FF321A60F7
:103860007047044B1B68DB68DB685A68024B1A60C0
:10387000704700BFA44C00203C4C00202DE9F047CD
:1038800080460D4617469946089EDDF824A00A9CFE
:103890009200A521206B01F017FB236B07F18042FA
:1038A000013A03EB820727F00707002D61D04FF0A4
:1038B000000CBCF10F0F09D815F80C3004EB0C020A
:1038C00082F8343013B10CF1010CF2E7002384F8D4
:1038D0004330372E00D93726E662E6640025256599
:1038E000201DFFF742F904F11800FFF73EF92461AB
:1038F000C6F13806A6616462C4F8985184F89C51F8
:103900004FF4A072294604F1580001F0DDFA1B4B78
:10391000E36503F168022266D03363660122002367
:10392000C4E93C2343F20E33A4F8F8304AF6CD3311
:10393000A4F8FA3041F23423A4F8FC304EF26D635F
:10394000A4F8FE304DF6EC63A4F800310523A4F88A
:1039500002310B23A4F804314A4641463846FFF7AA
:103960007DF92060BAF1000F01D0CAF80040BDE82F
:10397000F087002384F83430ABE700BF50560020B6
:1039800038B5002407E004EB840293000E48184485
:10399000FFF7E0F80134372CF5D90C4D2846FFF736
:1039A000D9F80B4C2046FFF7D5F80A48FFF7D2F8B4
:1039B0000948FFF7CFF80948FFF7CCF8084B1D601E
:1039C000084B1C6038BD00BFD04C0020BC4C002010
:1039D000A84C00208C4C0020784C0020604C00202B
:1039E000A44C0020A04C002010B50446FFF762F95B
:1039F000224A136801331360214B1B685BB1214BD2
:103A00001B686BB91E4B1B68DA6AE36A9A4207D8D7
:103A10001B4B1C6004E01A4B1C601368012B29D05F
:103A2000194A1368013313606364E06A174B1B681B
:103A3000984201D9154B186000EB8000211D144BF2
:103A400003EB8000FFF794F8FFF756F90D4B1B6866
:103A50007BB10B4B1B68DA6AE36A9A4209D24FF0DA
:103A6000E0234FF08052C3F8042DBFF34F8FBFF314
:103A70006F8F10BDFFF784FFD2E700BF5C4C0020C2
:103A800030510020504C0020404C0020544C00206D
:103A9000D04C002010B50446583001F067FA94F875
:103AA0009D3163B1012B11D0022B0ED04FF050038A
:103AB00083F31188BFF36F8FBFF34F8FFEE7206B47
:103AC000FFF732FB2046FFF72FFB10BD2046FFF724
:103AD0002BFBFAE70F4B1B68D3B110B5FFF7EAF8E1
:103AE0000D4BDB68DC68201DFFF766F80B4A136896
:103AF000013B1360074A1368013B1360FFF7FCF8B2
:103B00002046FFF7C7FF034B1B68002BE6D110BD13
:103B1000704700BF744C0020784C00205C4C0020A3
:103B200008B5FFF7D7FF074B1B68012BF9D94FF0FA
:103B3000E0234FF08052C3F8042DBFF34F8FBFF343
:103B40006F8FEEE7D04C002070B504460D46174B42
:103B50001E68174B18680430FFF72EF8B4F1FF3FCA
:103B60000DD03444124B1B685C60A64210D9114B37
:103B700018680F4B19680431FFF705F870BD002D68
:103B8000EFD00B4B196804310B48FEF7F1FFF5E756
:103B90000A4B1868064B19680431FEF7F4FF084B0E
:103BA0001B68A342EAD9064B1C60E7E7584C00208B
:103BB00030510020A04C0020604C0020A44C00207C
:103BC0003C4C002030B587B00B9C8CB10C9DC5B12E
:103BD0004FF4D0750495049DB5F5D07F1AD04FF001
:103BE000500383F31188BFF36F8FBFF34F8FFEE74E
:103BF0004FF0500383F31188BFF36F8FBFF34F8FE4
:103C0000FEE74FF0500383F31188BFF36F8FBFF3CC
:103C10004F8FFEE7049D0C9D2C63022485F89D4187
:103C200000240394029505AC01940A9C0094FFF7CC
:103C300025FE0C98FFF7D8FE059807B030BD2DE99A
:103C4000F04385B00746884614461E469000FFF7AD
:103C5000E9F910B381464FF4D070FFF7E3F9054658
:103C6000A8B1C0F83090002380F89D3103930290F2
:103C70000D9B01930C9B00933346224641463846E8
:103C8000FFF7FCFD2846FFF7AFFE012007E048469E
:103C9000FFF74AFA4FF0FF3001E04FF0FF3005B078
:103CA000BDE8F08310B588B000240594069407AAF7
:103CB00006A905A8FEF736FF059B0293069B019314
:103CC00000942346079A1A491A48FFF77BFF1A4BBC
:103CD0001860E8B100F05CFB01281AD14FF05003E6
:103CE00083F31188BFF36F8FBFF34F8F134B1B68A4
:103CF0005833134A1360134B4FF0FF321A60124BC4
:103D000001221A60114B00221A60FFF76DF803E0E0
:103D10000020B0F1FF3F01D008B010BD4FF05003BC
:103D200083F31188BFF36F8FBFF34F8FFEE700BFA0
:103D300048540008213B0008384C00203051002036
:103D4000100000203C4C0020504C0020584C00201B
:103D5000024A136801331360704700BF344C0020DF
:103D6000014B1868704700BF584C0020F8B53A4B1B
:103D70001B68002B69D1394B1D6801351D60C5B921
:103D8000374B1B681B6843B14FF0500383F3118816
:103D9000BFF36F8FBFF34F8FFEE7314A1168314B8E
:103DA000186810601960304A136801331360FFF718
:103DB0004FFD2E4B1B68AB423DD900272C4B1B6897
:103DC000DB6A03EB83039A002A4B9B58012B00D933
:103DD0000127294B1B68002B3CD001273AE0012723
:103DE0001F4B1B681B6843B31D4B1B68DB68DC68FB
:103DF00063689D4226D3261D3046FEF7DDFEA36A8A
:103E00001BB104F11800FEF7D7FEE36A1B4A1268E3
:103E1000934201D9194A136003EB83039A00314698
:103E200014481044FEF7A4FEE26A114B1B68DB6ADB
:103E30009A42D4D2D4E70027D2E70C4B4FF0FF329E
:103E40001A60BBE7094A1360B8E70D4A13680133EB
:103E5000136000273846F8BD344C0020584C002031
:103E6000A44C0020A04C0020444C00203C4C0020DE
:103E700030510020D04C0020484C0020544C0020F1
:103E80004C4C002038B5354B1B6843B94FF05003FC
:103E900083F31188BFF36F8FBFF34F8FFEE7FEF7F9
:103EA00009FF2E4B1A68013A1A601B68002B4FD18C
:103EB0002B4B1B680BB900244BE00024294B1B68DB
:103EC0001BB3284BDB68DC6804F11800FEF774FEB6
:103ED000251D2846FEF770FEE06A234B1B689842BA
:103EE00001D9214B186000EB800029461F4B03EBE2
:103EF0008000FEF73DFEE26A1D4B1B68DB6A9A42BA
:103F0000DCD31C4B01221A60D8E70CB1FFF7A0FCF0
:103F1000194B1C6884B9174B1C68D4B14FF0E023CF
:103F20004FF08052C3F8042DBFF34F8FBFF36F8F54
:103F300001240EE0013C07D0FFF718FF0028F9D05C
:103F40000C4B01221A60F5E70B4B00221A60E2E7E6
:103F50000024FEF7D1FE204638BD00BF344C0020BF
:103F60005C4C00208C4C0020544C0020D04C002095
:103F700030510020484C00204C4C002010B5A8B116
:103F80000446104B1B6843B14FF0500383F3118874
:103F9000BFF36F8FBFF34F8FFEE7FFF7D9FE00210E
:103FA0002046FFF7D1FDFFF76DFF48B94FF0E02342
:103FB0004FF08052C3F8042DBFF34F8FBFF36F8FC4
:103FC00010BD00BF344C0020224B1B681BB1224B9C
:103FD00001221A607047204B00221A601F4B1B6899
:103FE00003EB83018A001E498A585AB90BB1013B81
:103FF000F6E74FF0500383F31188BFF36F8FBFF3E1
:104000004F8FFEE7084603EB83018A0002445168A4
:104010004968516003EB830C4FEA8C02083202447A
:1040200091420FD003EB830291000D4A0A4452687B
:10403000D1680C4A116009490B60136858330A4A69
:1040400013607047486862469100054A0A44506010
:10405000E8E700BF344C0020484C0020544C0020BE
:10406000D04C0020305100201000002058B110B575
:104070000C46094A11681831FEF785FD01212046DA
:10408000FFF762FD10BD4FF0500383F31188BFF3BB
:104090006F8FBFF34F8FFEE73051002038B570B1FE
:1040A0000D4614460A4A11681831FEF761FD0CB13D
:1040B0004FF0FF3521462846FFF746FD38BD4FF04B
:1040C000500383F31188BFF36F8FBFF34F8FFEE769
:1040D0003051002038B5C368DC6824B304F11805FA
:1040E0002846FEF769FD184B1B682BBB251D28468B
:1040F000FEF762FDE06A154B1B68984201D9134B2D
:10410000186000EB80002946114B03EB8000FEF79E
:104110002FFDE26A0F4B1B68DB6A9A4211D901201E
:104120000D4B186038BD4FF0500383F31188BFF377
:104130006F8FBFF34F8FFEE729460848FEF718FD43
:10414000E7E70020EEE700BF344C0020544C00208D
:10415000D04C002030510020484C00208C4C0020D6
:10416000034B1B680360034B1B684360704700BF31
:10417000444C0020584C0020F8B5C8B10C46054608
:10418000F9B1FEF797FD1B4B19686B68C81A2268D6
:10419000B2F1FF3F26D0184E36682F68B74201D0E3
:1041A0008B4224D9824215D80023236001241AE0CF
:1041B0004FF0500383F31188BFF36F8FBFF34F8F1E
:1041C000FEE74FF0500383F31188BFF36F8FBFF307
:1041D0004F8FFEE75B1A134423602846FFF7C0FFAA
:1041E000002400E00024FEF787FD2046F8BD0124EE
:1041F000F9E700BF584C0020444C0020014B01223D
:104200001A607047484C0020054B1B6833B1054BC2
:104210001B680BB1002070470220704701207047D7
:10422000504C0020344C002000283BD038B50446C8
:104230001E4B1B68834208D04FF0500383F3118854
:10424000BFF36F8FBFF34F8FFEE7036D43B94FF09E
:10425000500383F31188BFF36F8FBFF34F8FFEE7D7
:10426000013B0365C16AC26C91421DD00BB10020B5
:1042700038BD051D2846FEF79FFCE06CE062C0F1EA
:104280003803A3610A4B1B68984201D9084B186098
:1042900000EB80002946074B03EB8000FEF768FC2B
:1042A0000120E5E7002070470020E1E730510020C1
:1042B000544C0020D04C0020064B1A6813682BB9D0
:1042C0000123036023B9D368186870470023F8E717
:1042D000002070473452002008B5416000619142CF
:1042E0000CD8D21A83699A4201D3012008BD011D5E
:1042F000094B1868FEF747FC0020F7E79A4201D205
:10430000994206D2011D054B1868FEF73CFC0020BF
:10431000ECE70120EAE700BF3052002034520020D1
:1043200030B583B0FEF7C6FC114B1B681BB1FEF71E
:10433000E3FC03B030BD0F4D2846FEF70BFC0E4CDE
:104340002046FEF707FC0D4B1D600D4B1C60002343
:1043500000930C4B0C4A10210A20FFF716F8044B6F
:1043600018600028E3D00949FFF734FADFE700BFFF
:104370002C5200204C520020385200203452002091
:104380003052002034510020845100205054000845
:1043900010B588B0FFF7C4FF124B1B68CBB10024E7
:1043A0000594069407AA06A905A8FEF7C7FB059B76
:1043B0000293069B0193022300932346079A0A491E
:1043C0000A48FFF7FFFB0A4B186010B1012008B044
:1043D00010BD4FF0500383F31188BFF36F8FBFF30D
:1043E0004F8FFEE72C52002058540008F546000875
:1043F00028520020B8B19C4603461848006858B3BC
:1044000000B585B000910192029305291CDCFFF7ED
:10441000FBFE022810D000231A4669460F480068A8
:10442000FEF7FDFF15E04FF0500383F31188BFF353
:104430006F8FBFF34F8FFEE70023069A6946074848
:104440000068FEF7ECFF04E0002362466946FFF7D0
:10445000AAF805B05DF804FB002070472C5200203C
:1044600070B582B01B4B1B681A6862B3DB681E68AC
:10447000DC68251D2846FEF79FFB236A20469847E7
:1044800094F8283013F0040FECD0A36933449E4213
:1044900007D26360246129460E4B1868FEF773FB50
:1044A000E0E7002100910B4632462046FFF7A2FFCD
:1044B0000028D7D14FF0500383F31188BFF36F8FDB
:1044C000BFF34F8FFEE7044A10680249086013608B
:1044D00002B070BD345200203052002038B505467D
:1044E000FFF73EFC0446074B1B68834205D80023B8
:1044F0002B60044B1C60204638BDFFF7B1FF012341
:104500002B60F6E72452002070B582B006460D46B7
:1045100017490968C968CC68201DFEF74DFB94F85F
:1045200028C01CF0040F08D12CF0010C84F828C01E
:10453000236A2046984702B070BDA16933462A46D7
:1045400031442046FFF7C8FE0028F1D00021009139
:104550000B4632462046FFF74DFF0028E8D14FF0CA
:10456000500383F31188BFF36F8FBFF34F8FFEE7C4
:104570003452002070B582B006460C46FFF7E8FBC7
:1045800001A8FFF7ABFF019B33BB0546E4B9B0427E
:1045900013D22246711B124B1868FFF72FF9FFF751
:1045A00071FCD8B94FF0E0234FF08052C3F8042DCE
:1045B000BFF34F8FBFF36F8F10E0FFF763FC294607
:1045C0003046FFF7A1FF09E0064A126812680AB9EF
:1045D0000124DEE71C46DCE7FFF754FC02B070BDA7
:1045E0002C5200203052002010B588B002E0049B0D
:1045F000002B0FDA002204A93D4B1868FFF73AF8A8
:10460000002873D0049B002BF1DA07990698059BCC
:104610009847ECE7069C636913B1201DFEF7CCFABE
:1046200003A8FFF75BFF049B092BE3D8DFE803F047
:104630000505053037500505303794F8283043F02C
:10464000010384F82830059BA169024619442046DD
:10465000FFF742FE0028CDD0236A2046984794F801
:10466000283013F0040FC5D0A269002100910B4639
:10467000059802442046FFF7BDFE0028BAD14FF04E
:10468000500383F31188BFF36F8FBFF34F8FFEE7A3
:1046900094F8283023F0010384F82830AAE794F82E
:1046A000283043F0010384F828300599A16131B125
:1046B0000346024601442046FFF70EFE9AE74FF0FC
:1046C000500383F31188BFF36F8FBFF34F8FFEE763
:1046D00094F8283013F0020F04D023F0010384F87B
:1046E000283087E72046FEF71FFD83E708B010BD9E
:1046F0002C52002000B583B001A8FFF7DDFD019921
:10470000FFF738FFFFF770FFF6E7000038B500EB62
:10471000C00400EB44001F4C208001EBC10001EB02
:104720004001618002EBC20102EB4102A28003EB77
:10473000C30203EB4203E38000241DE0154B33F971
:10474000143000EE103AC4EBC403134D05EB83059F
:10475000B5F9063000EE903AF8EEE00AB8EEC00A7D
:1047600034200E4B00FB043000F096F8BDEEC00A7A
:1047700010EE103A6B800134032CDFDD0648B0F9EF
:104780005630B0F93A20B0F91E10B0F9020000F02E
:1047900087F938BDD052002060520020E05200203E
:1047A0002DE9F04F83B0B0F90270B0F90460B0F9B0
:1047B0000000FBF779FF30A3D3E90023FBF7F8FCF7
:1047C00004460D463846FBF76FFF2DA3D3E90023BF
:1047D000FBF7EEFC8046894602460B4620462946FA
:1047E000FBF716FE82468B463046FBF75DFF06461A
:1047F0000F4602460B4650465946FBF709FEFBF7AB
:10480000BDFF03B2019342464B4620462946FBF7C3
:10481000FDFD02460B4630463946FBF7F9FDFBF736
:10482000ADFF0FFA80FA204605F1004142464B46A3
:10483000FBF7ECFD02460B4630463946FBF7E8FD38
:10484000FBF79CFF0FFA80FB22462B464046494669
:10485000FBF7DCFD32463B46FBF7DAFDFBF78EFF4C
:1048600003B25A4651460198FFF750FF03B0BDE826
:10487000F08F00BFAFF300803E9865669EA0E6BF54
:104880003E9865669EA0E63F08B50248FFF788FFA0
:1048900008BD00BFD852002080ED050AC0ED060A11
:1048A00090ED076A80ED086A30EE600A80ED070A35
:1048B00090ED007A20EE077A80ED097AD0ED0A6A51
:1048C000D0ED017A60EE277A76EEA76AC0ED0A6A2B
:1048D000D0ED027A30EE460A67EE807AC0ED0B7AB0
:1048E000D0ED035AB1EE656AF4EEC66AF1EE10FA45
:1048F00006D9F4EEE56AF1EE10FA1CDBB0EE656A5B
:1049000080ED0A6A37EE067A77EE877AC0ED0C7A88
:1049100090ED047AB1EE470AF4EEC07AF1EE10FAA7
:1049200006D9F4EEC77AF1EE10FA07DBB0EE470ACB
:1049300080ED0C0A7047B0EE666AE1E7B0EE670AF8
:10494000F6E7034600283DD00278407842EA00228C
:10495000C2F30A020A8058789A78520142EAD002D9
:10496000C2F30A024A809878DA78920042EA9012FA
:10497000187942EA8022C2F30A028A8018795A79A9
:10498000D20142EA5002C2F30A02CA805A7992095D
:104990000A725A79C2F301124A729A79D87942EAB4
:1049A00000224A811A7A587A42EA00228A819A7A47
:1049B000D87A42EA0022CA811A7B0A745A7B4A7466
:1049C0009B7B4B827047000010B5064C7522064950
:1049D0002046FDF7CBFFE36B1A68136823F008034A
:1049E000136010BD38060020B05300200A4B1A890E
:1049F00040F202339A4200D07047074AD188A1F5AD
:104A00008061064B19809188C1F5806159801288B8
:104A1000C2F580629A80EFE7B0550020D85200209E
:104A200008B5FFF7E3FF08BD10B58AB00121089172
:104A300000220592049210230093019303930293A2
:104A400006910792064C69462046FCF7D9FB2046A2
:104A5000FCF772FC02212046FCF7DFFD0AB010BD16
:104A6000B805002030B58BB001230893059304935B
:104A70001024009401940394029406930023079356
:104A8000064D69462846FCF7BBFB2846FCF754FC5C
:104A900021462846FCF7C1FD0BB030BD9005002033
:104AA00010B588B04FF400740294082406940024D2
:104AB0000494059404128DF800408DF8010008124A
:104AC0008DF802008DF8031011128DF804108DF886
:104AD00005201A128DF806208DF807300648FCF7DD
:104AE000CEFC08B908B010BD01236A4602A90248ED
:104AF000FCF750FCF6E700BFB805002000B58BB00E
:104B000002681A4B9A422BD0039BA3F20122032A7C
:104B100023D8DBB2013BDBB29DF804209DF80500F1
:104B200040EA02201249C3EBC30201EB82029080EB
:104B30009DF806C09DF8070040EA0C20D0809DF843
:104B400008C09DF8090040EA0C2010819DF80A2059
:104B5000C3EBC30301EB83018A720BB05DF804FB66
:104B600001AB03AA0021FCF7A3FCCDE700640040E1
:104B7000E055002000B58BB00268214B9A4231D03D
:104B8000039BA3F20523032B29D89DF804209DF84D
:104B9000053043EA022318B21A4A93809DF806C0F2
:104BA0009DF8071041EA0C21D1809DF808C09DF8BE
:104BB000091041EA0C2111819DF80A109172B2F995
:104BC0001820D21AB2F5805F12DD0E49CA68013290
:104BD000CA600C4A1083D16803EB4133D3820BB017
:104BE0005DF804FB01AB03AA0121FCF761FCC7E7F8
:104BF00012F5805FEDDA0349CA68013ACA60E8E756
:104C000000680040C4550020704700002DE9F047BF
:104C1000089D0E4604460F46002B4AD194468C450B
:104C2000B2FA82F260D942B1C2F12003974020FA71
:104C300003F30CFA02FC1F4394404FEA1C4E1FFA88
:104C40008CF6B7FBFEF1230C0EFB117743EA07430A
:104C500001FB06F098420AD91CEB030301F1FF3770
:104C600080F01581984240F21281023963441B1A88
:104C7000A4B2B3FBFEF00EFB103344EA034400FB86
:104C800006F6A6420AD91CEB040400F1FF3380F0BB
:104C90000081A64240F2FD806444023840EA0140AF
:104CA000A41B00211DB1D4400023C5E90043BDE889
:104CB000F0878B4205D90DB1C5E9000100210846F6
:104CC000F5E7B3FA83F1002946D1B34202D3824219
:104CD00000F2F580841A66EB030201201746002DCE
:104CE000E5D0C5E90047E2E7002A40F09380A1EB58
:104CF0000C034FEA1C471FFA8CFE0121B3FBF7F6A9
:104D000007FB1630230C43EA00430EFB06F09842E3
:104D100008D91CEB030306F1FF3802D2984200F2D7
:104D2000D08046461B1AA4B2B3FBF7F007FB103342
:104D300044EA03440EFB00FEA64508D91CEB04041C
:104D400000F1FF3302D2A64500F2B6801846A4EB6C
:104D50000E0440EA0640A5E7C1F120078B4022FA85
:104D600007FC4CEA030C06FA01FE20FA07F426FAC7
:104D700007F344EA0E0400FA01F84FEA1C404FEA38
:104D80001449B3FBF0FE1FFA8CF600FB1E3349EA10
:104D900003430EFB06F9994502FA01F20BD91CEB0D
:104DA00003030EF1FF3A80F08580994540F282803E
:104DB000AEF1020E6344A3EB0909A4B2B9FBF0F310
:104DC00000FB139944EA094403FB06F6A64208D9FE
:104DD0001CEB040403F1FF3068D2A64266D9023B03
:104DE000644443EA0E40A41BA0FB02E6B4427346AF
:104DF000B14652D34FD05DB1B8EB030264EB090466
:104E000004FA07F722FA01F31F43CC40C5E9007406
:104E100000214CE7C2F1200120FA01F30CFA02FC58
:104E200026FA01F1964033434FEA1C471FFA8CFEE5
:104E3000B1FBF7F007FB1016190C41EA064100FB25
:104E40000EF68E4204FA02F408D91CEB010100F1BF
:104E5000FF382DD28E422BD902386144891B9BB278
:104E6000B1FBF7F607FB161143EA014306FB0EF10F
:104E7000994208D91CEB030306F1FF3814D299427A
:104E800012D9023E63445B1A46EA004136E73946CE
:104E9000EDE6184602E7F045ADD2BEEB020366EB45
:104EA0000C060138B146A6E74646ECE7034698E70C
:104EB0004046D3E7D6467EE76444023847E70846D3
:104EC0000DE7023E63442DE7830730B547D0541EFB
:104ED000002A3ED0CAB2034601E0013C39D303F8B0
:104EE000012B9D07F9D1032C2CD9CDB205EB05255B
:104EF0000F2C05EB054535D9A4F1100222F00F0C5B
:104F000003F1100EE6444FEA121C1A46C2E900559E
:104F1000C2E9025510327245F8D10CF1010214F0C9
:104F20000C0F03EB021204F00F0C13D0ACF10403CE
:104F300023F003030433134442F8045B9342FBD190
:104F40000CF003042CB1C9B21C4403F8011BA342AA
:104F5000FBD130BD64461346002CF4D1F9E703467B
:104F60001446C0E71A46A446E0E700BF194B1B6889
:104F700083422ED0416C70B5054681B100268C5914
:104F80003CB121462468284600F0C4F8002CF8D132
:104F9000696C0436802EF2D1284600F0BBF8A96B6C
:104FA00011B1284600F0B6F82C6C34B121462468C3
:104FB000284600F0AFF8002CF8D1E96C11B1284672
:104FC00000F0A8F86B6B1BB12846BDE8704018478D
:104FD00070BD704710000020014B1868704700BF7B
:104FE0001000002070B50F4B0F4DAB42A3EB050630
:104FF00007D0B610002455F8043B01349847A64268
:10500000F9D800F003FA094D094B5E1BAB424FEA99
:10501000A60606D0002455F8043B01349847A64262
:10502000F9D870BDEC540008EC540008EC540008AA
:10503000F4540008704700BF704700BF024B13B123
:10504000024800F005B8704700000000495300080E
:10505000002301461A46184600F098B92DE9F84396
:1050600006460820894600F083F9DFF8A48005464B
:10507000304600F04BF9D8F808305F6827F0030796
:10508000A7F11104A4EB09042C44B4FBF5F4013C92
:1050900005FB04F4A54208DC0021304600F042F98B
:1050A000D8F808303B44984205D0304600F034F937
:1050B0000020BDE8F8836142304600F033F901304A
:1050C0000FD0114AD8F808303F1B47F001075F6046
:1050D000136830461B1B136000F01EF90120BDE869
:1050E000F8830021304600F01DF9D8F80820831A13
:1050F0000F2BDADD43F001035360044B02491B68B8
:10510000C01A0860D1E700BF985700205C0100205A
:105110006801002000297CD02DE9F0410C46804632
:1051200000F0F4F854F8043C754FA4F1080523F09E
:1051300001016818BE684268864222F0030200F04E
:105140008380DE07426000EB020C33D454F8084C35
:10515000DCF804302D1B2144AC6807F1080C6445D1
:1051600003F0010364D0D5F80CE0C4F80CE0CEF8ED
:105170000840002B00F0818041F001036B6001606A
:10518000B1F5007F22D27868CB08012249090133AA
:105190008A40024357F833107A6007EBC302083A9B
:1051A000C5E9021247F83350CD604046BDE8F041F2
:1051B00000F0B2B8DCF80430DB072BD541F0010376
:1051C000B1F5007F44F8043C0160DCD3B1F5206FF9
:1051D0004FEA512353D28B0903F1390003F138020E
:1051E000C300F818FB580838984203D161E09B6867
:1051F000984204D05A6822F003028A42F7D8D8684D
:10520000C5E902308560DD604046BDE8F04100F050
:1052100083B87047114407F1080C836863453FD099
:10522000C268DA60936041F001036B606950A7E7E0
:10523000002B5FD10A44D0E90213CB60996042F0A1
:1052400001036B60AA50B0E7DB070A4407D454F8A7
:10525000083CED1A1A44D5E90213CB60996042F07C
:1052600001036B60274BBD601B6893429DD8264BA2
:1052700040461968FFF7F2FE97E71144CDE7142B7B
:1052800008D9542B1DD80B0B03F16F0003F16E02EC
:10529000C300A6E703F15C0003F15B02C300A0E7D3
:1052A00041F00103C7E90455C5E902CC6B606950C0
:1052B0007BE779689210012404FA02F20A437A60CB
:1052C0009EE7B3F5AA7F06D8CB0B03F1780003F174
:1052D0007702C30085E740F25452934206D88B0C04
:1052E00003F17D0003F17C02C3007AE74FF47E7383
:1052F0007E2276E741F001036B60016055E700BF55
:105300006801002060010020C05700200148FFF71D
:1053100091BE00BF8C5700200148FFF78DBE00BF33
:105320008C57002038B5074D0022044608462A60F5
:10533000FBF7D4FD431C00D038BD2B68002BFBD0FD
:10534000236038BD8857002038B5074D074C2C1B0B
:10535000A41005D0013C55F8043D9847002CF9D124
:10536000BDE8384000F058B8F8540008F45400087C
:10537000082802D14FF48050704708B5FFF72CFE83
:10538000162303604FF0FF3008BD00BF2DE9F8433E
:105390001B4D0646286898460F469146FFF74AFE81
:1053A000184B1C681CB3286865681F2D22DC4EB999
:1053B0006B1C0235636044F82570FFF73DFE00204A
:1053C000BDE8F88304EB85010123C1F88890D4F887
:1053D0008821AB401A43022EC4F88821C1F8088105
:1053E000E6D1D4F88C211A43C4F88C21E0E7064CAE
:1053F0001C60D8E7FFF720FE4FF0FF30E0E700BF6A
:105400005801002094570020C4570020F8B500BF71
:10541000F8BC08BC9E467047F8B500BFF8BC08BC95
:045420009E467047ED
:1054240052656D6F74655461736B000055617274DD
:105434005461736B000000004368617373697354B3
:1054440061736B0049444C4500000000546D725177
:1054540000000000546D7220537663002454000849
:105464000000000000000000000000000000000038
:10547400000200000800000000000000000000001E
:10548400305400080000000000000000000000008C
:1054940000000000000200000800000000000000FE
:1054A400000000003C540008000000000000000060
:1054B40000000000000000000002000018000000CE
:1054C40000000000000000000000000001020304CE
:1054D40000000000000000000102030406070809A0
:0854E4001CB3FF7F0100000072
:0854EC003D5000089D09000875
:0454F400750900082E
:1054F8000024F4000100000010000000AAAAAAAAD3
:105508001800002000000000000000005056002095
:10551800B8560020205700200000000000000000BE
:105528000000000000000000000000000000000073
:105538000000000000000000000000000000000063
:105548000000000000000000000000000000000053
:105558000000000000000000000000000000000043
:105568000000000000000000000000000000000033
:105578000000000000000000000000000000000023
:105588000000000000000000000000000000000013
:105598000000000000000000000000000000000003
:1055A80001000000000000000E33CDAB34126DE6A0
:1055B800ECDE05000B000000000000000000000009
:1055C80000000000000000000000000000000000D3
:1055D80000000000000000000000000000000000C3
:1055E80000000000000000000000000000000000B3
:1055F80000000000000000000000000000000000A3
:105608000000000000000000000000000000000092
:105618000000000000000000000000000000000082
:105628000000000000000000000000000000000072
:105638000000000000000000000000000000000062
:10564800000000000000000090570020FFFFFFFF4F
:105658000000020000000000000000000000000040
:1056680068010020680100207001002070010020FE
:1056780078010020780100208001002080010020AE
:10568800880100208801002090010020900100205E
:105698009801002098010020A0010020A00100200E
:1056A800A8010020A8010020B0010020B0010020BE
:1056B800B8010020B8010020C0010020C00100206E
:1056C800C8010020C8010020D0010020D00100201E
:1056D800D8010020D8010020E0010020E0010020CE
:1056E800E8010020E8010020F0010020F00100207E
:1056F800F8010020F801002000020020000200202C
:1057080008020020080200201002002010020020D9
:105718001802002018020020200200202002002089
:105728002802002028020020300200203002002039
:1057380038020020380200204002002040020020E9
:105748004802002048020020500200205002002099
:105758005802002058020020600200206002002049
:1057680068020020680200207002002070020020F9
:1057780078020020780200208002002080020020A9
:105788008802002088020020900200209002002059
:105798009802002098020020A0020020A002002009
:1057A800A8020020A8020020B0020020B0020020B9
:1057B800B8020020B8020020C0020020C002002069
:1057C800C8020020C8020020D0020020D002002019
:1057D800D8020020D8020020E0020020E0020020C9
:1057E800E8020020E8020020F0020020F002002079
:1057F800F8020020F8020020000300200003002027
:1058080008030020080300201003002010030020D4
:105818001803002018030020200300202003002084
:105828002803002028030020300300203003002034
:1058380038030020380300204003002040030020E4
:105848004803002048030020500300205003002094
:105858005803002058030020600300206003002044
:1058680068030020680300207003002070030020F4
:1058780078030020780300208003002080030020A4
:105888008803002088030020900300209003002054
:105898009803002098030020A0030020A003002004
:1058A800A8030020A8030020B0030020B0030020B4
:1058B800B8030020B8030020C0030020C003002064
:1058C800C8030020C8030020D0030020D003002014
:1058D800D8030020D8030020E0030020E0030020C4
:1058E800E8030020E8030020F0030020F003002074
:1058F800F8030020F8030020000400200004002022
:1059080008040020080400201004002010040020CF
:10591800180400201804002020040020200400207F
:10592800280400202804002030040020300400202F
:1059380038040020380400204004002040040020DF
:10594800480400204804002050040020500400208F
:10595800580400205804002060040020600400203F
:1059680068040020680400207004002070040020EF
:10597800780400207804002080040020800400209F
:10598800880400208804002090040020900400204F
:105998009804002098040020A0040020A0040020FF
:1059A800A8040020A8040020B0040020B0040020AF
:1059B800B8040020B8040020C0040020C00400205F
:1059C800C8040020C8040020D0040020D00400200F
:1059D800D8040020D8040020E0040020E0040020BF
:1059E800E8040020E8040020F0040020F00400206F
:1059F800F8040020F804002000050020000500201D
:105A080008050020080500201005002010050020CA
:105A1800180500201805002020050020200500207A
:105A2800280500202805002030050020300500202A
:105A380038050020380500204005002040050020DA
:105A4800480500204805002050050020500500208A
:105A5800580500205805002060050020600500203A
:0400000508001009D6
:00000001FF
